S01700004763634170706C69636174696F6E312E737265635B
S11300000C942A000C9434000C9434000C943400A6
S11300100C9434000C9434000C9434000C9434008C
S11300200C9434000C9434000C9434000C9434007C
S11300300C9434000C9434000C9436000C9434006A
S11300400C9434000C9434000C9434000C9434005C
S11300500C94340011241FBECFE5D8E0DEBFCDBF21
S11300600E9444000C944E000C9400001F920F92C6
S11300700FB60F9211248F9388E48CB98F910F904F
S11300800FBE0F901F9018958AB188628AB980B507
S1130090866880BD83E389B97894FFCFF894FFCF55
S9030000FC
