:100000000C942A000C9434000C9434000C943400AA
:100010000C9434000C9434000C9434000C94340090
:100020000C9434000C9434000C9434000C94340080
:100030000C9434000C9436000C9434000C9434006E
:100040000C9434000C9434000C9434000C94340060
:100050000C94340011241FBECFE5D8E0DEBFCDBF25
:100060000E9444000C9450000C9400001F920F92C8
:100070000FB60F9211248F938CB18BBB8F910F9081
:100080000FBE0F901F9018958FEF8ABB8AB18069C1
:100090008AB980B5866880BD83E389B97894FFCF3B
:0400A000F894FFCF02
:00000001FF
