:020000000C945E
:100002002F000C9400000C9400000C9400000C943F
:1000120000000C9400000C9400000C9400000C945E
:1000220000000C9400000C9400000C9400000C944E
:1000320000000C9400000C9400000C9400000C943E
:1000420000000C9400000C9400000C9400000C942E
:1000520000003F065B4F666D7D077F6FF894EE27C9
:10006200ECBBF1E0FBBFEBBFE5BF8DE0A2E0BB273D
:10007200ED938A95E9F780E094E0A0E6ED9301978D
:10008200E9F7EFE5EDBFE4E0EEBFC0E6D1E00C94A6
:100092004A003BD141D1E5E0F0E0FA93EA93AEE5C4
:1000A200B1E05DD039D17AD037D1EBE5F5E2FA9300
:1000B200EA93E3E0F0E0FA93EA93A4E0B0E072D0CE
:1000C200FFCFAA931A93E981F0E0E130A0E0FA07AA
:1000D20021F4E0E0EABB19B317C0E230A0E0FA076E
:1000E20021F4E0E0E7BB16B30FC0E330A0E0FA076B
:1000F20021F4E0E0E4BB13B307C0E430A0E0FA0768
:1001020019F4E0E0E1BB10B3E12F188126C0AA93F5
:10011200E981F0E0E130A0E0FA0729F4EFEFEABB71
:10012200E881EBBB1AC0E230A0E0FA0729F4EFEF56
:10013200E7BBE881E8BB11C0E330A0E0FA0729F48D
:10014200EFEFE4BBE881E5BB08C0E430A0E0FA07CA
:1001520021F4EFEFE1BBE881E2BB22960895BA9366
:10016200AA931A930A93E0E0E8BBDAD000E010E029
:10017200EC81FD810E171F076CF4E2E0EA93AFEF0A
:10018200C6DFCED0E2E0EA93A0E0C1DFC9D00F5FC4
:100192001F4FEECF19810881269608951A93B5D084
:1001A20019910895BA93AA9328971A930A93AE8540
:1001B200BF85E8EEF3E00E94D401EA83FB83AE85BB
:1001C200BF85E8EEF3E00E94D901DF01E4E6F0E04A
:1001D2000E94D401EC83FD83AE85BF85E4E6F0E0A6
:1001E2000E94D901DF01EAE0F0E00E94D401EE832F
:1001F200FF83AE85BF85EAE0F0E00E94D901E8877F
:10020200F98700E010E00430E0E01E070CF079C04E
:10021200EC85FD85E130A0E0FA0729F4EFEFEABBB7
:1002220083D00BBA1AC0E230A0E0FA0729F4EFEF4C
:10023200E7BB7AD008BA11C0E330A0E0FA0729F48C
:10024200EFEFE4BB71D005BA08C0E430A0E0FA07D2
:1002520021F4EFEFE1BB68D002BAEA85FB85E13019
:10026200A0E0FA0781F4EFE0EABBEBB3EF60EBBB8F
:100272001BB267D0E095E121EBBB68D01BB261D025
:10028200E129EBBB3BC0E230A0E0FA0781F4EFE0EA
:10029200E7BBE8B3EF60E8BB18B253D0E095E121C9
:1002A200E8BB54D018B24DD0E129E8BB27C0E330F7
:1002B200A0E0FA0781F4EFE0E4BBE5B3EF60E5BB51
:1002C20015B23FD0E095E121E5BB40D015B239D05F
:1002D200E129E5BB13C0E430A0E0FA0779F4EFE0CE
:1002E200E1BBE2B3EF60E2BB12B22BD0E095E121B9
:1002F200E2BB2CD012B225D0E129E2BB0F5F1F4F27
:1003020082CF1981088160960895A1E0DADE1E2F5E
:10031200E2E0EA93A12FFBCEA4EFB1E00C94AB0193
:10032200AA81BB810C94AB01F801DE011296EE0F9B
:10033200FF1FAE0FBF1F0E94F501EC5AFF4F049042
:100342000895E02FA1E00E94B9010895A6E9B0E066
:100352000C94AB01109639F080ED97E00197F1F71C
:10036200A8951197C9F70895F195E195F040089580
:10037200EE230E2EEA2F19F0EE0F0A94E9F70895F4
:100382000024112490E1AA0FBB1F001C111C0E1A9D
:100392001F0A18F40E0E1F1E01C0A1609A9599F74C
:1003A200FD01D001089512D0EBDF0EF4DDDF0895D8
:1003B200E894B7FF04C0A095B09511966894F7FD34
:1003C200D3DFDEDFFD010EF4CFDF0895E894F7FFFF
:1003D20002C0CADF6894B7FF06C0A095B095119617
:1003E20000F8039400FA0895ED91FC911197089595
:00000001FF
