:0E0000000C9446000C9473000C9400000C94B9
:10000E0000000C9400000C9400000C9400000C9462
:10001E0000000C9400000C9400000C9400000C9452
:10002E0000000C9400000C9400000C9400000C9442
:10003E0000000C9400000C9400000C9400000C9432
:10004E0000000C9400001027E80364000A00010071
:10005E000010000110000100E8033130303000467E
:10006E00554C4C002534640080C00200040066002C
:10007E000500600168000200650176000000F8943A
:10008E00EE27ECBBF1E0FBBFEBBFE5BF8DE0A2E0DE
:10009E00BB27ED938A95E9F780E094E0A0E6ED9317
:1000AE000197E9F7E8E7F0E085919591009761F007
:1000BE00A591B59105901590BF01F00105900D9297
:1000CE000197E1F7FB01F0CFEFE5EDBFE4E0EEBF06
:1000DE00C0E6D1E00C948F000A921A92FA926A93BB
:1000EE007A938A939A93AA93BA93EA93FA93EFB771
:1000FE00EA931DD0E991EFBFF991E991B991A991D8
:10010E009991899179916991F99019900990189521
:10011E0052D00E94EA02E0E0EA93A1E00E94DD02E2
:10012E00A0E6B1E00E940B037894FFCFFFCF60975B
:10013E00E7B3E777E7BBB79904C0002404140504BE
:10014E000CF005C0F20131972F0131960BC0B39917
:10015E0005C0E8EEF3E04E165F060CF003C0F201A8
:10016E0031962F01042C052861F4FE01FA93EA93CF
:10017E00EDE6F0E0FA93EA9380E00E94890224967D
:10018E0010C0FE01FA93EA93E2E7F0E0FA93EA93E5
:10019E00F2010E94AF030E94BC0384E00E94890218
:1001AE002896E0E0EA93A1E00E94DD02DE010E94C3
:1001BE000B0360960895E0E0EABBEBBBE7BBE8BB40
:1001CE00EFEFE4BBE0E0E5BBE1BBE2BBE3BFE2BFC8
:1001DE00ECBFEFBDEEBDEDBDECBDE7BDE6BDEBBDCD
:1001EE00EABDE9BDE8BDE2BDE5BDE4BDE3BDE9BFE5
:1001FE00EBB7E064EBBFE2E0E5BFE0E0E4BFE0E4D4
:10020E00EABFE0E0EAB9E0E8E8B9E0E0E0BFE6B96D
:10021E00EDB9E6BFA0E10E941C030895BA93AA931C
:10022E001A930A93AA81BB8112960E94B403309747
:10023E0059F1AA81BB8114960E94B4038F013097A5
:10024E0061F00230E0E01E0798F0F80131978F015F
:10025E00AA81BB811496ED93FC93AA81BB81129661
:10026E00ED91FD913196FE93EE933197AC81A08383
:10027E00AA81BB810E94B403FF232AF0ED91FD9168
:10028E003196FE93EE9306C0AA81BB81EFEFFFEF8E
:10029E00ED93FC931981088125960895BA93AA933C
:1002AE0026970E94C10310E0AC85BD85E0E0F0E02A
:1002BE00ED93FC93EA89FB893196EA8BFB8B3197A0
:1002CE00E4912E2FE03009F415C1E12FE03039F41E
:1002DE00253211F411E002C00E9463030AC1E1301D
:1002EE00A9F4253219F40E94630302C112E040E022
:1002FE0000E02D3211F401E0FCC02B3211F44BE280
:10030E00F8C0203211F440E2F4C002C0E23039F4F9
:10031E0050E013E0203311F40068EBC003C0E3306B
:10032E0009F0E7C0203310F02A3308F007C0AAE026
:10033E005A9F502DE22FE0535E0FDBC0E22FE336C3
:10034E0049F40E946A03E889F989A481AA930E945C
:10035E007003CEC0E33741F40E946A030E94760315
:10036E000E944A031E2F0AC0E03761F40E946A03FE
:10037E000E9476030E9456031E2F086002600F77BC
:10038E0030E034C0E43611F0E93611F4046002C0F6
:10039E00E53731F4E4E5F0E0EE83FF8315E00CC0C1
:1003AE00E83511F4086003C0E83709F0A1C0EEE5A6
:1003BE00F0E0EE83FF8314E002FF14C00E946A0394
:1003CE000E948003AB85AA233AF4EA85FB850E943E
:1003DE00AB03EA87FB874DE2403011F01F5F01C08F
:1003EE000B7F04C00E946A030E94800300FD11C0AF
:1003FE00151778F407FF08C002FF04C00B7F242FE7
:10040E00115001C020E301C020E20E94630351504D
:10041E00EFCF312F01FF17C03030A1F003FF06C020
:10042E00EE81FF812591EE83FF8305C0AE81BF81F2
:10043E002D91AE83BF830E946303503009F051505B
:10044E003150EACF4BC020E3EE81FF810E94B8030A
:10045E00E887F987EE81FF813296EE83FF83E88588
:10046E00F985AA85BB85AE17BF0750F02F5FA8850B
:10047E00B985EA85FB85EA1BFB0BEA87FB87EFCF85
:10048E002A3328F003FF02C0295F01C0295D04FD55
:10049E001AC0213320F4A885B985119709F409C033
:1004AE00531710F000FF01C013C020E207FF0BC06E
:1004BE0020E3006102FF07C00B7F4A930E94700386
:1004CE00503009F051500E946303503009F05150E2
:1004DE003150A885B985129708F0B5CF00FF08C036
:1004EE00503031F05150E0E2EA930E947003F8CFA1
:1004FE0010E0E0CEAC85BD850E94B4030E94C80317
:10050E0064960895FF92F82E26970E94C3030E94C8
:10051E008803309719F4EFEFFFEF23C0DE01169634
:10052E000E94A7038D010E948803EE83FF83E0E003
:10053E00E887E987DE011A960E94A7030E94B4039A
:10054E00FA93EA931A930A93E5E1F1E0FA93EA93A8
:10055E00DE011A96A3DE9F01AE81BF81E0E0EC932F
:10056E00F9010E94CA032A96FF900895AA93E5B353
:10057E00EF70AE2FE881E07FEA2BE5BB8DE08A9528
:10058E00F1F7AA9A8DE08A95F1F7AA988DE08A95EF
:10059E00F1F777C0AA93A881E9DFE881E295E883B5
:1005AE00A881E4DF85E88A95F1F76BC0AA93E8810C
:1005BE00F0E0EB59FE4FE081A981AE0FEBDF7980C1
:1005CE00688022960895A2E00E948F03ACE0E2DFDD
:1005DE00A1E00E948F03E0E06E2E7E2E0895AA9376
:1005EE00A881AA3011F0791448F0E0E0EA93639400
:1005FE00A62DDCDFA881AA3009F443C07394A89A13
:10060E00A881C8DFA8983DC0BA93AA931A93A9816E
:10061E00BA81ED91A983BA831E2FE03019F0A12F74
:10062E00DEDFF5CF188123960895AA93E4B3E06F29
:10063E00E4BBA29AA09AA19AAA98A898A998988081
:10064E00E881E058E0936701E881E054E0936801A7
:10065E00A4E1B0E00E949D030E9495030E949503C1
:10066E000E949503A0E282DF88EC90E00197F1F7FB
:10067E00A8E290DFA4E08EDFA5E88CDFA6E08ADF9B
:10068E00A2DF21960895BA93AA93A991B991EE2764
:10069E00FF276D91662311F03196FBCF0895BA9323
:1006AE00AA93AA27BB27E991F9910590002011F092
:1006BE001196FBCFFD0108952A93AD85BE85EF857A
:1006CE00F88909950895E889F9893497E88BF98BAB
:1006DE000895AD85BE85EF85F88909950895A88999
:1006EE00B98914960E94B403EE83FF83AE81BF8155
:1006FE000895A889B98914960E94B403EA87FB87E6
:10070E000895DE011C960E94A7030E94B40308956B
:10071E000E94D102A3E0B0E00C949D03A0E30E94DE
:10072E00BD0288EC90E00197F1F70895109639F02C
:10073E0080ED97E00197F1F7A8951197C9F7089505
:10074E000024AF0DB01D0895F195E195F040089588
:10075E006F2F660F660B762F0895ED91FC91119712
:10076E0008950590F491E02D08957A936A93FA9383
:10077E00EA9308955A934A933A932A931A930A93B3
:10078E0008955D814C813B812A81198108810895EC
:00000001FF
