:060000000C94C0000C94FA
:1000060000000C9400000C9400000C9400000C946A
:1000160000000C9400000C9400000C9400000C945A
:1000260000000C9400000C9400000C9400000C944A
:1000360000000C9460010C9400000C9400000C94D9
:1000460000000C9400000C9400000C940000102793
:10005600E80364000A00010000100001100001001E
:1000660051310A41444330203D3E202564206D56DF
:100076000051310A41444331203D3E202564206D24
:10008600560051310A41444332203D3E202564202A
:100096006D560051310A41444333203D3E202564CC
:1000A600206D560051310A41444334203D3E2025FF
:1000B60064206D560051310A41444335203D3E20AF
:1000C6002564206D560051310A41444336203D3E99
:1000D600202564206D560051310A41444337203DA6
:1000E6003E202564206D560051320A41444330209B
:1000F6003D3E202564206D560051320A414443316D
:10010600203D3E202564206D560051320A4144436D
:1001160032203D3E202564206D560051320A41446E
:100126004333203D3E202564206D560051320A415E
:10013600444334203D3E202564206D560051320A4A
:1001460041444335203D3E202564206D5600513202
:100156000A41444336203D3E202564206D56005119
:10016600320A41444337203D3E202564206D560027
:1001760080C002008D0176010000F894EE27ECBBEA
:10018600F1E0FBBFEBBFE5BF8DE0A2E0BB27ED933F
:100196008A95E9F780E094E0A0E6ED930197E9F708
:1001A600E8E7F1E085919591009761F0A591B59109
:1001B60005901590BF01F00105900D920197E1F7AA
:1001C600FB01F0CFEFE5EDBFE4E0EEBFC0E6D1E026
:1001D6000C94ED002AD0A8EEB3E00E9491050E948F
:1001E6001E020E9432020E949B01FBCFFFCFAA9300
:1001F600E881E064E7B98BE18A95F1F7369A349B9A
:10020600FECF349AE4B1F5B10C94E002E0E0EABB2B
:10021600EBBBE7BBE8BBE4BBE5BBE1BBE2BBE0E4B1
:10022600E7B9E3EA0E94A30408956897EFDF0E9406
:100236008202A0E00E94A904E6E6F0E00E94B5046E
:10024600A1E00E94A904E7E7F0E00E94B504A2E05D
:100256000E94A904E8E8F0E00E94B504A3E00E9429
:10026600A904E9E9F0E00E94B504A4E00E94A9040B
:10027600EAEAF0E00E94B504A5E00E94A904EBEBCF
:10028600F0E00E94B504A6E00E94A904ECECF0E0C0
:100296000E94B504A7E00E94A904EDEDF0E0FA93F0
:1002A600EA93E88DF98D6A8D7B8D0E94D804A0E2D1
:1002B600B3E00E949105689608956A937A938A93AB
:1002C600AA93BA93EA93FA93EFB7EA93E09180017F
:1002D600A0E6B1E0F0E00E940207AE0FBF1FE4B156
:1002E600F5B1662777270E946D07A0918001AF5F61
:1002F600A0938001A83018F0E0E0E0938001E0913F
:100306008001E05CE7B98BE18A95F1F7369AE991CD
:10031600EFBFF991E991B991A99189917991699183
:100326001895E0E4E7B9EBEE0E94A30478940895EB
:100336006497F7DF0E94EF04EEEEF0E0FA93EA939B
:100346000E94F5040E94D8040E94FE04EFEFF0E03C
:10035600FA93EA93E0916401F09165016091660178
:10036600709167010E94D8040E94FE04E0E1F1E06A
:10037600FA93EA93E0916801F091690160916A014C
:1003860070916B010E94D8040E94FE04E1E2F1E044
:10039600FA93EA93E0916C01F0916D0160916E0120
:1003A60070916F010E94D8040E94FE04E2E3F1E01E
:1003B600FA93EA93E0917001F091710160917201F4
:1003C600709173010E94D8040E94FE04E3E4F1E0F8
:1003D600FA93EA93E0917401F091750160917601C8
:1003E600709177010E94D8040E94FE04E4E5F1E0D2
:1003F600FA93EA93E0917801F091790160917A019C
:1004060070917B010E94D8040E94FE04E5E6F1E0AB
:10041600FA93EA93E0917C01F0917D0160917E016F
:1004260070917F010E94D804A4EFB1E00E9491056B
:1004360016D00C945404E8E0E7BBE0E0E8BBE2E643
:10044600E3BFE0E0E2BFE9BF0E9405050E94150593
:10045600E0E4E7B9EBEC0E94A304789408950E94C7
:100466000505E0938101F093820160938301709307
:1004760084010E943D05A6E6B6E686E89FE30E9453
:10048600480511F008F009C00E943D05A3E3B3E357
:1004960083E79FE30E94480520F40E9405050E9419
:1004A60015050895AA93E5B3EF70AE2FE881E07FB6
:1004B600EA2BE5BB8DE08A95F1F7AA9A8DE08A953D
:1004C600F1F7AA988DE08A95F1F777C0AA93A881EB
:1004D600E9DFE881E295E883A881E4DF85E88A958B
:1004E600F1F76BC0AA93E881F0E0E357FE4FE08195
:1004F600A981AE0FEBDF5980488022960895A2E0CD
:100506000E945705ACE0E2DFA1E00E945705E0E05B
:100516004E2E5E2E0895AA93A881AA3011F0571484
:1005260048F0E0E0EA934394A42DDCDFA881AA30EA
:1005360009F443C05394A89AA881C8DFA8983DC07F
:10054600BA93AA931A93A981BA81ED91A983BA8322
:100556001E2FE03019F0A12FDEDFF5CF188123968C
:100566000895AA93E4B3E06FE4BBA29AA09AA19A75
:10057600AA98A898A9987880E881E058E0938F0116
:10058600E881E054E0939001A4E1B0E00E94910577
:100596000E945D050E945D050E945D05A0E282DF66
:1005A60088EC90E00197F1F7A8E290DFA4E08EDFF7
:1005B600A5E88CDFA6E08ADFA2DF21960895BA932C
:1005C600AA931A930A93AA81BB8112960E9469077D
:1005D600309759F1AA81BB8114960E9469078F0151
:1005E600309761F00230E0E01E0798F0F80131978D
:1005F6008F01AA81BB811496ED93FC93AA81BB81DE
:100606001296ED91FD913196FE93EE933197AC8162
:10061600A083AA81BB810E946907FF232AF0ED917E
:10062600FD913196FE93EE9306C0AA81BB81EFEF52
:10063600FFEFED93FC931981088125960895BA93EF
:10064600AA9326970E948D0710E0AC85BD85E0E051
:10065600F0E0ED93FC93EA89FB893196EA8BFB8BFC
:100666003197E4912E2FE03009F415C1E12FE030E7
:1006760039F4253211F411E002C00E9465050AC161
:10068600E130A9F4253219F40E94650502C112E091
:1006960040E000E02D3211F401E0FCC02B3211F4F1
:1006A6004BE2F8C0203211F440E2F4C002C0E2305E
:1006B60039F450E013E0203311F40068EBC003C0B6
:1006C600E33009F0E7C0203310F02A3308F007C002
:1006D600AAE05A9F502DE22FE0535E0FDBC0E22FB7
:1006E600E33649F40E946C05E889F989A481AA9346
:1006F6000E947205CEC0E33741F40E946C050E9449
:1007060078050E948A041E2F0AC0E03761F40E9411
:100716006C050E9478050E9496041E2F08600260F0
:100726000F7730E034C0E43611F0E93611F4046096
:1007360002C0E53731F4E4E5F0E0EE83FF8315E02F
:100746000CC0E83511F4086003C0E83709F0A1C011
:10075600EEE5F0E0EE83FF8314E002FF14C00E9492
:100766006C050E948205AB85AA233AF4EA85FB85CF
:100776000E94F606EA87FB874DE2403011F01F5FC4
:1007860001C00B7F04C00E946C050E94820500FD1B
:1007960011C0151778F407FF08C002FF04C00B7FCD
:1007A600242F115001C020E301C020E20E946505FC
:1007B6005150EFCF312F01FF17C03030A1F003FFAA
:1007C60006C0EE81FF812591EE83FF8305C0AE81D1
:1007D600BF812D91AE83BF830E946505503009F01D
:1007E60051503150EACF4BC020E3EE81FF810E9489
:1007F6007207E887F987EE81FF813296EE83FF83E1
:10080600E885F985AA85BB85AE17BF0750F02F5F2F
:10081600A885B985EA85FB85EA1BFB0BEA87FB877A
:10082600EFCF2A3328F003FF02C0295F01C0295DFC
:1008360004FD1AC0213320F4A885B985119709F45F
:1008460009C0531710F000FF01C013C020E207FFD4
:100856000BC020E3006102FF07C00B7F4A930E9492
:100866007205503009F051500E946505503009F06C
:1008760051503150A885B985129708F0B5CF00FFC1
:1008860008C0503031F05150E0E2EA930E94720500
:10089600F8CF10E0E0CEAC85BD850E9469070E94C6
:1008A600940764960895FF92F82E26970E948F0764
:1008B6000E948A05309719F4EFEFFFEF23C0DE019F
:1008C60016960E94F2068D010E948A05EE83FF832A
:1008D600E0E0E887E987DE011A960E94F2060E94A8
:1008E6006907FA93EA931A930A93E2EEF2E0FA930F
:1008F600EA93DE011A96A3DE9F01AE81BF81E0E096
:10090600EC93F9010E9496072A96FF900895BA93F0
:10091600AA93A991B991EE27FF276D91662311F04D
:100926003196FBCF0895BA93AA93AA27BB27E991DC
:10093600F9910590002011F01196FBCFFD01089565
:10094600E6B9E0E0E0BFA0E10C94B4020E94FA0030
:1009560066277727EC8BFD8B6E8B7F8BFE01FA93D8
:10096600EA930895FA93EA93E88DF98D6A8D7B8D63
:10097600A8E8B3E180E090E00E942707DF01CB0101
:10098600EFEFF3E060E070E00E9451070E94760707
:1009960084E00E9456042896DE010E94A302A0E28B
:1009A600B3E00E9491050C948202A8E8B3E180E0CE
:1009B60090E00E942707DF01CB01EFEFF3E060E054
:1009C60070E00E9451070E94760784E00E94560458
:1009D6002896DE010C94A3020E948202FE01FA937D
:1009E600EA930895E0916001F091610160916201DE
:1009F600709163010895A4EFB1E00E9491050E94F1
:100A06003202EACFEFDFA4E6B0E080E090E00E9499
:100A16002707DF01CB01E0E0F4E060E070E00E9430
:100A260051070895E0938501F0938601609387014D
:100A360070938801E0938101F093820160938301B2
:100A4600709384010E940106AAE2BAE382E290E46E
:100A56000E948406AEEBB0E389E59FE30E9434066C
:100A6600A9E8B1E00E94CA050E946D07E0918901DC
:100A7600ECBF0895E0918501F091860160918701B0
:100A8600709188010E94010608950E948406A09133
:100A96008101B091820180918301909184010E942D
:100AA6007D070E94D20608950E946902A3E0B0E085
:100AB6000C949105A0E30E94550288EC90E0019702
:100AC600F1F708952A93AD85BE85EF85F8890995D6
:100AD6000895E889F9893497E88BF98B0895AD85EF
:100AE600BE85EF85F88909950895A889B989149670
:100AF6000E946907EE83FF83AE81BF810895A889AE
:100B0600B98914960E946907EA87FB870895DE0172
:100B16001C960E94F2060E9469070895109639F005
:100B260080ED97E00197F1F7A8951197C9F7089519
:100B3600552342F4503811F4E0FF04C03196691F82
:100B4600791F6BF050E8572711F45F93C8C05F3FD9
:100B560031F0660F000C57956795752F08955F93D2
:100B660000200AF0C8C0C1C050E8192E1522880F0F
:100B7600991F9527550F879550E8072E0522660F72
:100B8600771F7527550F67950895689401C0E894F7
:100B96005F93F2DF703818F07F3F08F4A0C056E18B
:100BA600571BAAF4519558300EF4593030F0EFEF38
:100BB600FFEF6FEF7FE777F91AC077275523B9F074
:100BC600EE0FFF1F661F771F5A95D1F710C07727C4
:100BD600583028F0EF2FF62F672F5850F9CF5523AE
:100BE60031F076956795F795E7955A95D1F70020F8
:100BF6000AF4FDD05F910895689401C0E894309797
:100C060060407040B1F0002426F0772312F400947F
:100C1600EED0172E7EE1112032F07A95EE0FFF1FEF
:100C2600661F111CF9CFEF2FF62F612D5F938ADF18
:100C36005F9108954F93AF01FD01DA01AB01BC014D
:100C4600CA01402D012C142E4F910895EA0FFB1F67
:100C5600681F0895E095F0956095EF5FFF4F6F4F21
:100C660008955F9381DF903839F1703821F1572F5D
:100C7600591B2BF112F4DEDFFACF583118F0AA27F0
:100C8600BB278827583028F0AB2FB82F8827585015
:100C9600F9CF552329F08695B795A7955A95D9F793
:100CA600502D512572F0D2DF38F46795F795E79508
:100CB600739513F420C0BEDF45DF5F910895D8F722
:100CC600FBCFEA1BFB0B680B51F010F40094C2DF5C
:100CD600662392F3EE0FFF1F661F7A95CBF7EE277A
:100CE600FF27662777275F910895EFEFFFEF6FE7FE
:100CF6007FEF5F910895EFEFFFEF6FE77FE75F917B
:100D060008955F9331DF703851F3903841F3012431
:100D16000894791F23F41CF300203AF3ECCF0F92CA
:100D26001F932F933F934F93112722279927689F4D
:100D3600A0018F9F302D410D591F6B9F300D411D16
:100D4600591F8E9F27D0BF9F25D06A9F23D0BE9F55
:100D56001DD0AF9F1BD0AE9F110D291F391F491FF4
:100D6600591FE32FF42F652F522F4F913F912F914B
:100D76001F910F9066232AF0550FEE1FFF1F661F67
:100D860002C073954BF2D4DE5F910895100D211DBC
:100D9600391F02C0200D311D491F591F089599237F
:100DA6009AF0772342F0971748F029F4AE17BF0759
:100DB600860720F031F098948894089598940894C2
:100DC60008951894889408957723C2F7971798F38F
:100DD600A9F7EA17FB07680788F399F3ECCF002415
:100DE600AF0DB01D0895F195E195F0400895F09589
:100DF60060957095E195FF4F6F4F7F4F0895EE0F09
:100E0600FF1FEE0FFF1F08957A9F702D6B9F700DC9
:100E1600F89F700DE99F700D6A9F602D710DFB9F05
:100E2600600D711DE89F600D711D8827FA9FF02DDA
:100E3600610D781FEB9FF00D611D781FEA9FE02D75
:100E4600F10D681F781F08952ED0DEDF0EF4CFDF78
:100E560008953F934F935F93002411244427552709
:100E660030E2AA0FBB1F881F991F001C111C441FCC
:100E7600551F0E1A1F0A460B570B28F40E0E1F1E7F
:100E8600461F571F01C0A1603A9559F7FD01BC01E5
:100E9600D001CA015F914F913F91089504D0D9DFE7
:100EA6000EF4A5DF0895E89477FF02C0A0DF6894EA
:100EB60097FF0BC00024A095B0958095909511964C
:100EC600801D901D00F8039400FA0895ED91FC91A1
:100ED60011970895ED93FD936D937C930895059076
:100EE600F491E02D08957A936A93FA93EA9308951C
:100EF600689401C0E89401D082DE182E862F612DF9
:100F0600192E972F712D1B2EBF2FF12D1A2EAE2FB6
:100F1600E12D08955A934A933A932A931A930A9382
:100F260008955D814C813B812A811981088108954C
:00000001FF
