:040000000C942A0032
:100004000C9400000C9400000C9400000C9400006C
:100014000C9400000C9400000C9400000C9400005C
:100024000C9400000C9400000C9400000C9400004C
:100034000C9400000C9400000C9400000C9400003C
:100044000C9400000C9400000C9400000C9400002C
:10005400F894EE27ECBBF1E0FBBFEBBFE5BF8DE00E
:10006400A2E0BB27ED938A95E9F780E094E0A0E64F
:10007400ED930197E9F7EFE5EDBFE4E0EEBFC0E6ED
:10008400D1E00C944500E0E0EABBEBBBE8E0E7BB61
:10009400E0E0E8BBE4BBE5BBE1BBE2BBE2E6E3BF17
:1000A400E0E0E2BFE2EBECBFE0E0E9BFFFCFFFCF6F
:00000001FF
