:020000000C945E
:1000020043000C9400000C9400000C9400000C942B
:1000120000000C9400000C9400000C9400000C945E
:1000220078000C9400000C9400000C9400000C94D6
:1000320000000C9400000C9400000C9400000C943E
:1000420000000C9400000C9470000C9400000C94BE
:1000520000001027E80364000A00010000100001FC
:1000620010000100FF002534644D53300025346434
:100072005553300080C00200040066000200600197
:1000820076000000F894EE27ECBBF1E0FBBFEBBF7B
:10009200E5BF8DE0A2E0BB27ED938A95E9F780E00A
:1000A20094E0A0E6ED930197E9F7E8E7F0E08591A7
:1000B2009591009761F0A591B59105901590BF01BA
:1000C200F00105900D920197E1F7FB01F0CFEFE50A
:1000D200EDBFE4E0EEBFC0E6D1E00C94A4000E94C4
:1000E200A103E0E0EABB49B2552470D01EC00E94D1
:1000F200A1031A930A930E94AF030E947604ADEB08
:10010200B7E386E895E30E94A404A0E0B0E080E0B3
:1001120090E00E94A4040E943D048F010E940C05FD
:10012200EDBDE02FECBD09911991E991EFBFF99175
:10013200E991B991A9919991899179916991F990EE
:1001420019900990189574D07894FFCFFFCF0E9430
:10015200BE052497A889B9898A899B89EC89FD897A
:100162006E897F890E94FB047F936F93FF93EF93C5
:10017200A885B9858A859B85EC81FD816E817F8109
:100182000E94FB04AF91BF918F919F910E9436050F
:100192007F936F93FF93EF93A889B9898A899B898B
:1001A200EC85FD856E857F850E94FB04AF91BF9132
:1001B2008F919F910E947805A885B9858A859B8534
:1001C2000E94F6040E94B4056896089561970E9401
:1001D200AF033F01D301E8EEF3E00E947D053097C3
:1001E20069F4FE01FA93EA93E8E6F0E0FA93EA93FF
:1001F200D301E8EEF3E00E944E0508C0FE01FA9337
:10020200EA93EFE6F0E0FA93EA93F3010E94110514
:100212000E94B90584E00E94C7022896E7E0EA93AB
:10022200A1E00E941B03DE010E944903619608952A
:10023200E0E0EABBEBBBE7BBE8BBEFEFE4BBE0E02F
:10024200E5BBE0E3E1BBE0E0E2BBE3BFE2BFECBF62
:10025200E0E5EFBDE1E0EEBDE3E6EDBDE0ECECBDD7
:10026200E0E0E7BDE6BDEBBDEABDE9BDE8BDE2BD4C
:10027200E5BDE4BDE3BDE4E0E9BFEBB7E062EBBF9F
:10028200E0E0E5BFE4BFE0E2EABFE0E0EAB9E0E8CF
:10029200E8B9E0E0E0BFE6B9EDB9E6BFA0E10E944F
:1002A2005A030895BA93AA931A930A93AA81BB8117
:1002B20012960E94AC05309759F1AA81BB8114961F
:1002C2000E94AC058F01309761F00230E0E01E071A
:1002D20098F0F80131978F01AA81BB811496ED93B2
:1002E200FC93AA81BB811296ED91FD913196FE930A
:1002F200EE933197AC81A083AA81BB810E94AC05A9
:10030200FF232AF0ED91FD913196FE93EE9306C004
:10031200AA81BB81EFEFFFEFED93FC931981088176
:1003220025960895BA93AA9326970E94C30510E0D2
:10033200AC85BD85E0E0F0E0ED93FC93EA89FB89B2
:100342003196EA8BFB8B3197E4912E2FE03009F442
:1003520015C1E12FE03039F4253211F411E002C069
:100362000E94CC030AC1E130A9F4253219F40E949B
:10037200CC0302C112E040E000E02D3211F401E0B2
:10038200FCC02B3211F44BE2F8C0203211F440E2EF
:10039200F4C002C0E23039F450E013E0203311F42B
:1003A2000068EBC003C0E33009F0E7C0203310F06F
:1003B2002A3308F007C0AAE05A9F502DE22FE053DB
:1003C2005E0FDBC0E22FE33649F40E94D303E889D3
:1003D200F989A481AA930E94D903CEC0E33741F4DC
:1003E2000E94D3030E94DF030E9488031E2F0AC0CB
:1003F200E03761F40E94D3030E94DF030E9494035A
:100402001E2F086002600F7730E034C0E43611F02E
:10041200E93611F4046002C0E53731F4E4E5F0E0B6
:10042200EE83FF8315E00CC0E83511F4086003C0C9
:10043200E83709F0A1C0EEE5F0E0EE83FF8314E0B7
:1004420002FF14C00E94D3030E94E903AB85AA23D2
:100452003AF4EA85FB850E940005EA87FB874DE2B4
:10046200403011F01F5F01C00B7F04C00E94D30314
:100472000E94E90300FD11C0151778F407FF08C0B8
:1004820002FF04C00B7F242F115001C020E301C0E2
:1004920020E20E94CC035150EFCF312F01FF17C051
:1004A2003030A1F003FF06C0EE81FF812591EE837B
:1004B200FF8305C0AE81BF812D91AE83BF830E94B1
:1004C200CC03503009F051503150EACF4BC020E3F9
:1004D200EE81FF810E94B005E887F987EE81FF81F6
:1004E2003296EE83FF83E885F985AA85BB85AE1730
:1004F200BF0750F02F5FA885B985EA85FB85EA1B07
:10050200FB0BEA87FB87EFCF2A3328F003FF02C0F9
:10051200295F01C0295D04FD1AC0213320F4A8859A
:10052200B985119709F409C0531710F000FF01C0F3
:1005320013C020E207FF0BC020E3006102FF07C0E7
:100542000B7F4A930E94D903503009F051500E9408
:10055200CC03503009F051503150A885B98512971B
:1005620008F0B5CF00FF08C0503031F05150E0E242
:10057200EA930E94D903F8CF10E0E0CEAC85BD85A6
:100582000E94AC050E94CA0564960895FF92F82E57
:1005920026970E94C5050E94F103309719F4EFEFE8
:1005A200FFEF23C0DE0116960E94F2048D010E9425
:1005B200F103EE83FF83E0E0E887E987DE011A9624
:1005C2000E94F2040E94AC05FA93EA931A930A93EA
:1005D200E3E5F1E0FA93EA93DE011A96A3DE9F01C6
:1005E200AE81BF81E0E0EC93F9010E94CC052A962E
:1005F200FF900895AA93E5B3EF70AE2FE881E07FF4
:10060200EA2BE5BB8DE08A95F1F7AA9A8DE08A95EF
:10061200F1F7AA988DE08A95F1F777C0AA93A8819D
:10062200E9DFE881E295E883A881E4DF85E88A953D
:10063200F1F76BC0AA93E881F0E0E05AFE4FE08147
:10064200A981AE0FEBDF9980888022960895A2E0FF
:100652000E94F803ACE0E2DFA1E00E94F803E0E0D0
:100662008E2E9E2E0895AA93A881AA3011F09B1473
:1006720048F0E0E0EA938394A82DDCDFA881AA3059
:1006820009F443C09394A89AA881C8DFA8983DC0F2
:10069200BA93AA931A93A981BA81ED91A983BA83D5
:1006A2001E2FE03019F0A12FDEDFF5CF188123963F
:1006B2000895AA93E4B3E06FE4BBA29AA09AA19A28
:1006C200AA98A898A998B880E881E058E0936201B6
:1006D200E881E054E0936301A4E1B0E00E940604E3
:1006E2000E94FE030E94FE030E94FE03A0E282DF3C
:1006F20088EC90E00197F1F7A8E290DFA4E08EDFAA
:10070200A5E88CDFA6E08ADFA2DF21960895BA93DE
:10071200AA93A991B991EE27FF276D91662311F053
:100722003196FBCF0895BA93AA93AA27BB27E991E2
:10073200F9910590002011F01196FBCFFD0108956B
:100742000A921A92FA926A937A938A939A93AA9342
:10075200BA93EA93FA93EFB7EA930895F2010E94EB
:1007620011050E94B905E0E0F0E060E070E00E944F
:10077200B905EFEFF0E060E070E00E94B905E1E05A
:10078200F0E060E070E00E94B905A0E1B7E280E02D
:1007920090E00C94A8002A93AD85BE85EF85F88978
:1007A20009950895E889F9893497E88BF98B0895BA
:1007B200AD85BE85EF85F88909950895A889B9891F
:1007C20014960E94AC05EE83FF83AE81BF8108952B
:1007D200A889B98914960E94AC05EA87FB87089517
:1007E200DE011C960E94F2040E94AC0508950E944C
:1007F2000F03A3E0B0E00C940604A0E30E94FB0206
:1008020088EC90E00197F1F70895109639F080EDA9
:1008120097E00197F1F7A8951197C9F70895552325
:1008220042F4503811F4E0FF04C03196691F791F79
:100832006BF050E8572711F45F9373C05F3F31F0BC
:10084200660F000C57956795752F08955F930020EA
:100852000AF073C06CC050E8192E1522880F991F38
:100862009527550F879550E8072E0522660F771FAB
:100872007527550F67950895689401C0E8945F93B2
:10088200F2DF703818F07F3F08F44BC056E1571B77
:10089200AAF4519558300EF4593030F0EFEFFFEFD3
:1008A2006FEF7FE777F91AC077275523B9F0EE0F7C
:1008B200FF1F661F771F5A95D1F710C07727583050
:1008C20028F0EF2FF62F672F5850F9CF552331F02C
:1008D20076956795F795E7955A95D1F700200AF432
:1008E20092D05F910895689401C0E8943097604077
:1008F2007040B1F0002426F0772312F4009483D0E4
:10090200172E7EE1112032F07A95EE0FFF1F661F3F
:10091200111CF9CFEF2FF62F612D5F938ADF5F91C4
:100922000895EE27FF27662777275F910895EFEF57
:10093200FFEF6FE77FEF5F910895EFEFFFEF6FE754
:100942007FE75F9108955F9386DF703851F39038A7
:1009520041F301240894791F23F41CF300203AF395
:10096200ECCF0F921F932F933F934F931127222780
:100972009927689FA0018F9F302D410D591F6B9FB2
:10098200300D411D591F8E9F27D0BF9F25D06A9FD2
:1009920023D0BE9F1DD0AF9F1BD0AE9F110D291F2C
:1009A200391F491F591FE32FF42F652F522F4F91E3
:1009B2003F912F911F910F9066232AF0550FEE1F42
:1009C200FF1F661F02C073954BF229DF5F910895E6
:1009D200100D211D391F02C0200D311D491F591F45
:1009E20008950024AF0DB01D0895EA0FFB1F681F84
:1009F200791F0895EA1BFB0B680B790B0895F1959B
:100A0200E195F0400895F09560957095E195FF4F5E
:100A12006F4F7F4F0895EF2FFF27E7FDFFEF0895F8
:100A22006F2F660F660B762F08957A9F702D6B9F3E
:100A3200700DF89F700DE99F700D6A9F602D710D0A
:100A4200FB9F600D711DE89F600D711D8827FA9F45
:100A5200F02D610D781FEB9FF00D611D781FEA9F4D
:100A6200E02DF10D681F781F089562D0DEDF0EF4CD
:100A7200CADF08950024112490E1AA0FBB1F001CB5
:100A8200111C0E1A1F0A18F40E0E1F1E01C0A160BF
:100A92009A9599F7FD01D00108953CD0EBDF0EF451
:100AA200AEDF08953F934F935F93002411244427B0
:100AB200552730E2AA0FBB1F881F991F001C111C6B
:100AC200441F551F0E1A1F0A460B570B28F40E0E11
:100AD2001F1E461F571F01C0A1603A9559F7FD011D
:100AE200BC01D001CA015F914F913F91089520D07E
:100AF200D9DF0EF488DF0895E894B7FF04C0A0950B
:100B0200B09511966894F7FD7ADFB4DFFD010EF41B
:100B120076DF0895E894F7FF02C071DF6894B7FFAB
:100B220006C0A095B095119600F8039400FA0895B6
:100B3200E89477FF02C067DF689497FF0BC0002438
:100B4200A095B095809590951196801D901D00F806
:100B5200039400FA0895ED91FC9111970895059080
:100B6200F491E02D0895E883F9836A837B830895E5
:100B72007A936A93FA93EA9308959A938A93BA932B
:100B8200AA9308955A934A933A932A931A930A93EB
:100B920008955D814C813B812A81198108810895E4
:00000001FF
