:100000000C942A000C9434000C9434000C943400AA
:100010000C9434000C9434000C9434000C94340090
:100020000C9434000C9434000C9434000C94340080
:100030000C9434000C9434000C9434000C94340070
:100040000C9434000C9434000C9434000C94340060
:100050000C94340011241FBECFE5D8E0DEBFCDBF25
:100060000E9436000C944B000C94000087B38D7FE7
:1000700087BB8FEF84BB81BB1FBC87E08EBD1DBCDF
:100080001CBC8CB585BB8DB582BB08B602FEF9CF12
:0A00900084E088BFF6CFF894FFCF9C
:00000001FF
