:0C0000000C94A7010C9400000C94E40187
:10000C000C9400000C9400000C9400000C94000064
:10001C000C9400000C9400000C9400000C94000054
:10002C000C9400000C9400000C9400000C94000044
:10003C000C9400000C9400000C9400000C94000034
:10004C000C9400000C9400001027E80364000A00D4
:10005C000100001000011000010064616865736804
:10006C0000393832313431330000303132333435E9
:10007C00363738394142434445460F002057656CAA
:10008C00636F6D6520746F20746865204D696372B1
:10009C006F70726F636573736F72206C6162206333
:1000AC006C617373657320696E2049736661686156
:1000BC006E20556E6976657273697479206F66204F
:1000CC00546563686E6F6C6F67792E20202020203A
:1000DC0020202020202020200000100020004000A4
:1000EC00800030313233343536373839414243446D
:1000FC00454650726573732061206B65792E2E2EE8
:10010C0000636865636B696E6720696E74657272F3
:10011C007570742E2E2E0073797374656D20696E54
:10012C0069740A0053706565643A3F3F28302D3579
:10013C003072290073706565643A25633F28302D51
:10014C00353072290053797374656D20696E69744A
:10015C000A2073706565643A2563256328302D3554
:10016C003072290073797374656D20696E69740A35
:10017C002073706565643A454528302D35307229F9
:10018C000074696D653A3F3F28302D393973290069
:10019C0074696D653A25633F28302D393973290010
:1001AC0074696D653A2563256328302D39397329B7
:1001BC000073797374656D20696E69740A207469B3
:1001CC006D653A454528302D3939732900573A3F2A
:1001DC003F28302D39394B672900773A25633F2862
:1001EC00302D39394B672900773A25632563283040
:1001FC002D39394B67290073797374656D20696EDD
:10020C0069740A20773A454528302D39394B6729CE
:10021C000053797374656D20696E69740A20546596
:10022C006D703A3F3F2832302D38304329005379D6
:10023C007374656D20696E69740A2074656D703A0B
:10024C0025633F2832302D3830432900537973749D
:10025C00656D20696E69740A2074656D703A25634A
:10026C0025632832302D3830432900537973746557
:10027C006D20696E69740A2074656D703A45452865
:10028C0032302D383043290053797374656D204911
:10029C006E697420446F6E650A095468616E6B73E5
:1002AC00000001002D4E414E00494E46000080C01A
:1002BC00070060016600080067016D001000CE02A7
:1002CC0076000F006F01FE0016007E010D010D007F
:1002DC00940123011000A10130010D00B101230193
:1002EC001D00BE0170010D00DB0123010F00E801B0
:1002FC008D010D00F70123010D00040223011C00E8
:10030C001102BD010D002D0223010D003A02D9018D
:10031C000D00470223010D00540223011A00610253
:10032C0003021D007B021D021D00980277021900BA
:10033C00B50294020100DE02AE020200E202BA0231
:10034C000000F894EE27ECBBF1E0FBBFEBBFE5BF80
:10035C008DE0A2E0BB27ED938A95E9F780E094E06D
:10036C00A0E6ED930197E9F7ECEBF2E0859195911E
:10037C00009761F0A591B59105901590BF01F00122
:10038C0005900D920197E1F7FB01F0CFEFE5EDBF82
:10039C00E4E0EEBFC0E6D1E00C94D40136D0E0E648
:1003AC00F1E0FA93EA93A7E6B1E060D077D072D18E
:1003BC00789487D1F894D5D2FFCFFFCF0A921A92B6
:1003CC00FA926A937A938A939A93AA93BA93EA933A
:1003DC00FA93EFB7EA931A93E5B3E095E5BB0E9465
:1003EC0021070E942607A0810E94CD061991E99150
:1003FC00EFBFF991E991B991A9919991899179916D
:10040C006991F990199009901895E0E0EABBEBBB63
:10041C00E7BBE8BBE4BBE5BBE1BBE2BBE3BFE2BFD0
:10042C00ECBFEFBDEEBDEDBDECBDE7BDE6BDEBBD7C
:10043C00EABDE9BDE8BDE2BDE5BDE4BDE3BDE9BF94
:10044C00EBB7E068EBBFECE0E5BFE0E0E4BFE0E871
:10045C00EABFE0E0EAB9E0E8E8B9E0E0E0BFE6B91D
:10046C00EDB9E6BFA0E10E94F3060895BA93AA93F2
:10047C000E94C106E0E0EA93A0E00E94B406AA81C3
:10048C00BB810E94E206E0E0EA93A1E00E94B40680
:10049C00A881B9810E942B0724960895EF97A19704
:1004AC0080E6A0E0B0E0E6E8F0E00E9407080E94D9
:1004BC00F90700E010E020E030E040E050E00E945E
:1004CC00C106AE81BF81AE35E0E0BE0749F1E0E088
:1004DC00EA93A1E00E94B40600E010E09A01EE81DC
:1004EC00FF812E173F0784F4DE011896A20FB31F6D
:1004FC00AC910E94CD060A93A1E00E94B4060F5F56
:10050C001F4F2F5F3F4FEBCF4F5F5F4FEE81FF8150
:10051C003196EE83FF83A8ECB0E00E94D507D1CFD3
:10052C00A8EEB3E00E94D5070E94C106FE013896E2
:10053C000E943307DE011B960E9438070E940008B8
:10054C00EF96A7960895689788E1A0E0B0E0E6EEF4
:10055C00F0E00E9407080E94F907E0EFE7BB00E01B
:10056C0010E00430E0E01E070CF043C0F801DE019F
:10057C001696EE0FFF1FAE0FBF1FEC91E8BB24E1E8
:10058C0030E0AAE0B0E00E94D507B09B02C020E0AA
:10059C0030E0B19B02C021E030E0B29B02C022E00F
:1005AC0030E0B39B02C023E030E0E4E1F0E0E2177E
:1005BC00F307D1F00E94C106F8010E94E707E20F91
:1005CC00F31FAF01E0EFE8BBB099FECFB199FECFBE
:1005DC00B299FECFB399FECFDE011E96A40FB51FC4
:1005EC00AC910E94CD0605C0E0EFE8BB0F5F1F4F3A
:1005FC00B8CF0E9400086E9608952497E0E1E88336
:10060C00E0E2E983E0E4EA83E0E8EB830E94F907A7
:10061C0014E620E030E02430E0E03E07B4F5DE01E3
:10062C001696A20FB31FEC91E8BB44E150E0AAE090
:10063C00B0E00E94D507B09B02C040E050E0B19BF7
:10064C0002C041E050E0B29B02C042E050E0B39BDC
:10065C0002C043E050E0E4E1F0E0E417F50781F07C
:10066C00E22FEE0FEE0FE40F1E2FE0EFE8BBB09978
:10067C00FECFB199FECFB299FECFB399FECF05C094
:10068C00E0EFE8BB2F5F3F4FC6CFE12F0E94000881
:10069C002A9608951A930A93AFE6B1E00E94E206F7
:1006AC0000E010E0083CE0E01E0724F44CDF0F5F94
:1006BC001F4FF8CF0E943D070E94C1060991199166
:1006CC0008950E9441070E94C106AEE7B1E00E9466
:1006DC00E206A8E8B3E10E94D50708950E944507F9
:1006EC00A4E9B1E00E94E206A1EAB1E00E944B0746
:1006FC00E6B3E03FE9F30E9421070E944E070E94F7
:10070C005107A1EBB1E00E945407E0E4F1E00E9434
:10071C005B070E945E070E946507E6B3E03FE9F3C2
:10072C000E946D070E945107FE013496FA93EA93DA
:10073C00E1E5F1E00E945B070E945E070E947307EF
:10074C000E947807033348F00E948A070E945107E1
:10075C00AEEBB1E00E948D0705C00E9490070E948D
:10076C00510701C0C5CF8BC00E944507ABEDB1E06E
:10077C000E94E206A8EEB1E00E944B07E6B3E03F10
:10078C00E9F30E9421070E944E070E945107A7EF30
:10079C00B1E00E945407ECE9F1E00E945B070E9473
:1007AC005E070E946507E6B3E03FE9F30E946D0720
:1007BC000E945107A4E0B2E00E945407ECEAF1E079
:1007CC000E945B070E945E070E9473070E947807D5
:1007DC00043648F00E948A070E945107A1E1B2E05A
:1007EC000E948D0705C00E9490070E94510701C00E
:1007FC00C5CF45C00E944507ADE2B2E00E94E206BB
:10080C00AAE3B2E00E944B07E6B3E03FE9F30E9493
:10081C0021070E944E070E945107A7E4B2E00E94F4
:10082C005407E6EEF1E00E945B070E945E070E940F
:10083C006507E6B3E03FE9F30E946D070E9451079C
:10084C00A4E5B2E00E945407E4EFF1E00E945B07DC
:10085C000E945E070E9473070E947807043648F0D6
:10086C000E948A070E945107A1E6B2E00E948D0700
:10087C0005C00E9490070E94510701C0C5CF0E947D
:10088C000208EF96A9960895EF97A5970E94F9078D
:10089C0024E150E50E94C106ABE7B2E00E944B0791
:1008AC00E6B3E03FE9F30E9421070E9495070E94FE
:1008BC009807FE013696FA93EA93EAE3F2E00E9477
:1008CC005B070E945E0784E00E9437062896DE01D3
:1008DC0016960E94E206E6B3E03FE9F38EDE3E2F69
:1008EC000E94C1060E9495070E949807FE01369649
:1008FC00FA93EA93E8E5F2E00E945B070E945E0738
:10090C000E94730788E00E9437062C96DE0116962B
:10091C000E94E206A4EFB1E00E94D507AAE01A02F9
:10092C00F001E30F0E2F021710F0501758F40E942D
:10093C00C1060E9495070E949807A8E9B2E00E94A0
:10094C008D0709C0A8EBBBE00E94D5070E94950754
:10095C000E94980701C0A4CF0E940008EF96AB96A6
:10096C0008950E94C106BADEFFDE44DF8DDF0E94CF
:10097C00C106A5EBB2E00E942B070895BA93AA9387
:10098C001A930A93AA81BB8112960E94EC073097A6
:10099C0059F1AA81BB8114960E94EC078F01309704
:1009AC0061F00230E0E01E0798F0F80131978F01FA
:1009BC00AA81BB811496ED93FC93AA81BB811296FC
:1009CC00ED91FD913196FE93EE933197AC81A0831E
:1009DC00AA81BB810E94EC07FF232AF0ED91FD91C7
:1009EC003196FE93EE9306C0AA81BB81EFEFFFEF29
:1009FC00ED93FC931981088176C1BA93AA9326973B
:100A0C000E94F90710E0AC85BD85E0E0F0E0ED93C5
:100A1C00FC93EA89FB893196EA8BFB8B3197E49145
:100A2C002E2FE03009F415C1E12FE03039F42532D6
:100A3C0011F411E002C00E949B070AC1E130A9F435
:100A4C00253219F40E949B0702C112E040E000E03D
:100A5C002D3211F401E0FCC02B3211F44BE2F8C042
:100A6C00203211F440E2F4C002C0E23039F450E01C
:100A7C0013E0203311F40068EBC003C0E33009F03D
:100A8C00E7C0203310F02A3308F007C0AAE05A9FC1
:100A9C00502DE22FE0535E0FDBC0E22FE33649F41A
:100AAC000E94A207E889F989A481AA930E94A80749
:100ABC00CEC0E33741F40E94A2070E94AE070E9409
:100ACC007B061E2F0AC0E03761F40E94A2070E9429
:100ADC00AE070E9487061E2F086002600F7730E079
:100AEC0034C0E43611F0E93611F4046002C0E53785
:100AFC0031F4E4E5F0E0EE83FF8315E00CC0E8355B
:100B0C0011F4086003C0E83709F0A1C0EEE5F0E08D
:100B1C00EE83FF8314E002FF14C00E94A2070E9420
:100B2C00B807AB85AA233AF4EA85FB850E94E30754
:100B3C00EA87FB874DE2403011F01F5F01C00B7F4D
:100B4C0004C00E94A2070E94B80700FD11C015172F
:100B5C0078F407FF08C002FF04C00B7F242F11504C
:100B6C0001C020E301C020E20E949B075150EFCF4F
:100B7C00312F01FF17C03030A1F003FF06C0EE810A
:100B8C00FF812591EE83FF8305C0AE81BF812D913E
:100B9C00AE83BF830E949B07503009F051503150F7
:100BAC00EACF4BC020E3EE81FF810E94F007E8877B
:100BBC00F987EE81FF813296EE83FF83E885F98514
:100BCC00AA85BB85AE17BF0750F02F5FA885B985E6
:100BDC00EA85FB85EA1BFB0BEA87FB87EFCF2A3301
:100BEC0028F003FF02C0295F01C0295D04FD1AC073
:100BFC00213320F4A885B985119709F409C053173E
:100C0C0010F000FF01C013C020E207FF0BC020E36F
:100C1C00006102FF07C00B7F4A930E94A807503067
:100C2C0009F051500E949B07503009F0515031503F
:100C3C00A885B985129708F0B5CF00FF08C05030D1
:100C4C0031F05150E0E2EA930E94A807F8CF10E08F
:100C5C00E0CEAC85BD850E94EC070E94000864962E
:100C6C000895FF92F82E26970E94FB070E94C0075A
:100C7C00309719F4EFEFFFEF23C0DE0116960E94B8
:100C8C00DF078D010E94C007EE83FF83E0E0E88759
:100C9C00E987DE011A960E94DF070E94EC07FA939F
:100CAC00EA931A930A93E4ECF4E0FA93EA93DE01E4
:100CBC001A96A3DE9F01AE81BF81E0E0EC93F901AF
:100CCC000E9402082A96FF900895BA93AA93B981BC
:100CDC00A881109631F0FC81EB816A8161931197A8
:100CEC00E9F7EB81FC8125960895BA93AA93A99113
:100CFC00B991EE27FF276D91662311F03196FBCF4A
:100D0C000895BA93AA93AA27BB27E991F991059064
:100D1C00002011F01196FBCFFD010895AA93EBB3BF
:100D2C00EF70AE2FE881E07FEA2BEBBB8DE08A956C
:100D3C00F1F7DA9A8DE08A95F1F7DA988DE08A95D9
:100D4C00F1F777C0AA93A881E9DFE881E295E883FF
:100D5C00A881E4DF85E88A95F1F76BC0AA93E88156
:100D6C00F0E0EE51FD4FE081A981AE0FEBDF598031
:100D7C00488022960895A2E00E94C707ACE0E2DF0B
:100D8C00A1E00E94C707E0E04E2E5E2E0895AA93C4
:100D9C00A881AA3011F0571448F0E0E0EA9343948C
:100DAC00A42DDCDFA881AA3009F443C05394D89A4F
:100DBC00A881C8DFD8983DC0BA93AA931A93A98189
:100DCC00BA81ED91A983BA831E2FE03019F0A12FBF
:100DDC00DEDFF5CF188123960895AA93EAB3E06F6E
:100DEC00EABBD29AD09AD19ADA98D898D9987880C6
:100DFC00E881E058E093E402E881E054E093E502F6
:100E0C00A4E1B0E00E94D5070E94CD070E94CD0757
:100E1C000E94CD07A0E282DF88EC90E00197F1F709
:100E2C00A8E290DFA4E08EDFA5E88CDFA6E08ADFE5
:100E3C00A2DF219608950E9403031E2F0C94C10675
:100E4C00E12FF0E0E253FD4F08950E94E206A8EB7B
:100E5C00BBE00E94D5070C94C106FA93EA93E0E03C
:100E6C00EA9308950E947B06DF010C946B06A0EDBB
:100E7C00B7E00C94D507E0EFE7BBE8BB0895EF971C
:100E8C00A5970E94FB070C94C1060E94E206F3CFC3
:100E9C00FE013496E2CFDE011796E4CF0E94E20603
:100EAC00FE013496FA93EA930895FA93EA93C8CF25
:100EBC00E081FF27662777270E94F407089584E0D6
:100ECC000E9437062896DE0114960C94E2060E94C6
:100EDC0003033E2F0E94C106DBCFE32FF0E0E25369
:100EEC00FD4FE6CF88E00E9437062C96DE01149663
:100EFC000E94E206A4EFB1E00E94D507AAE01A0214
:100F0C00F001E30F0E2F08950E94C106C1CF0E947D
:100F1C00E206ADCFA8EBBBE00E94D507B9CFFE012E
:100F2C0036969BCFDE0119969DCF2A93AD85BE8553
:100F3C00EF85F88909950895E889F9893497E88B44
:100F4C00F98B0895AD85BE85EF85F88909950895CF
:100F5C00A889B98914960E94EC07EE83FF83AE81B1
:100F6C00BF810895A889B98914960E94EC07EA8775
:100F7C00FB870895DE011C960E94DF070E94EC0798
:100F8C0008950E94A806A3E0B0E00C94D507A0E356
:100F9C000E94940688EC90E00197F1F70895109662
:100FAC0039F080ED97E00197F1F7A8951197C9F703
:100FBC0008950024AF0DB01D0895F195E195F04012
:100FCC000895EE0FFF1FEE0FFF1F0895ED91FC919A
:100FDC00119708950590F491E02D08957A936A93F2
:100FEC00FA93EA9308955A934A933A932A931A934D
:100FFC000A9308955D814C813B812A811981088176
:10100C000895AC0FBD1F05900D928A95E1F70895D8
:00000001FF
