:100000000C942A000C9434000C9434000C943400AA
:100010000C9434000C9434000C9434000C94340090
:100020000C9434000C9434000C9434000C94340080
:100030000C9434000C9434000C9436000C9434006E
:100040000C9434000C9434000C9434000C94340060
:100050000C94340011241FBECFE5D8E0DEBFCDBF25
:100060000E9444000C944E000C9400001F920F92CA
:100070000FB60F9211248F938DE48CB98F910F904E
:100080000FBE0F901F9018958FEF87BB88E28AB93B
:1000900087EC80BD83E389B97894FFCFF894FFCFD4
:00000001FF
