:020000000C945E
:10000200D0020C9400000C9400000C9400000C949C
:1000120000000C9400000C9400000C9400000C945E
:10002200EB030C9400000C9400000C9400000C9460
:1000320000000C9400000C9400000C9400000C943E
:1000420000000C9400000C9400000C9400000C942E
:10005200000005072060000000000000005F0000B3
:100062000007000700147F147F14242A7F2A12231A
:100072001308646236495522500005030000001C33
:100082002241000041221C00082A1C2A0808083EBE
:100092000808005030000008080808080030300046
:1000A2000020100804023E5149453E00427F4000B4
:1000B20042615149462141454B311814127F1027A4
:1000C200454545393C4A49493001710905033649DC
:1000D200494936064949291E00363600000056367F
:1000E20000000008142241141414141441221408AC
:1000F200000201510906324979413E7E1111117EF9
:100102007F494949363E414141227F4141221C7F7C
:10011200494949417F090901013E414151327F0864
:1001220008087F00417F41002040413F017F0814C1
:1001320022417F404040407F0204027F7F0408103A
:100142007F3E4141413E7F090909063E4151215E00
:100152007F09192946464949493101017F01013F79
:100162004040403F1F2040201F7F2018207F631403
:100172000814630304780403615149454300007F76
:100182004141020408102041417F000004020102A3
:10019200044040404040000102040020545454787E
:1001A2007F484444383844444420384444487F38E3
:1001B20054545418087E090102081454543C7F0810
:1001C20004047800447D40002040443D00007F103C
:1001D200284400417F40007C041804787C08040411
:1001E2007838444444387C14141408081414187CD5
:1001F2007C080404084854545420043F4440203CE2
:100202004040207C1C2040201C3C4030403C442884
:100212001028440C5050503C4464544C440008365E
:10022200410000007F000000413608000201020484
:10023200027F4141417F5A003B0000000000000064
:100242000000000000000000C0800000000000006C
:10025200000000000000000000000000000000009C
:10026200000000000000000000000000000000008C
:10027200000000000000000000000000000000007C
:1002820000000080C040602020301000000000000C
:100292000000000000000000000000000001030652
:1002A20008F0E06326383010302060C00000000003
:1002B200000000000000000000000000000000003C
:1002C200000000000000000000000000000000002C
:1002D20000000000C0E0380C040404868705040C0A
:1002E20038F01018080C04020200000000000000A0
:1002F200000000000000000000007C7F604040C061
:10030200C6DECCC0E0E76F00000000000000000085
:10031200000000000000000000000080C00000009B
:1003220000000000000000000000000000000003C8
:100332000F081030202121303030180F000000004B
:1003420000000000000000000000000000000000AB
:10035200000000000000000000000000000000009B
:10036200000000000000000000000000000000008B
:100372000000E0B88E83C040400000000000000092
:10038200000000000000000000000000000000006B
:10039200000000000000000000000000000000005B
:1003A200000000000000000000000000000000004B
:1003B200000000000000000080800000000000003B
:1003C2000000000000000000000000000101000029
:1003D200000000000000000000000000000000001B
:1003E200000000000000000000C00000000000004B
:1003F20000000000000000000000000000000000FB
:1004020000000000000000000000000000000000EA
:1004120000301F101020206040C0808000000000CB
:1004220000000000000000000000000000008080CA
:10043200808000808080804040404060A0A0E070CA
:1004420030180C030E3860000000000000000000AD
:10045200000000000000000000000000000000009A
:10046200000000000000000000000000000000008A
:10047200000000000001030101050C0919113121DE
:1004820021010140414141414140602020001018BA
:10049200080C040603000100000000000000000038
:1004A200000000000000000000000000000000004A
:1004B200000000000000000000000000000000003A
:1004C200000000000000000000000000000000002A
:1004D200000000000000000000000000000000001A
:1004E200000000000000000000000000000000000A
:1004F20000000000000000000000000000000000FA
:10050200000000000000000000000000320048006F
:100512004800480030000000000000003E000900D2
:10052200090009003E000000000000007C001000ED
:10053200100010007C000000000000003E00490096
:1005420049004900360000000000000103070F1FA8
:100552003F7FFF0000001E00000020003600330035
:1005620039003132000001002D4E414E00494E4605
:100572000000060008005605020060015C0502004A
:1005820062015E0502006401600502006601620507
:1005920003006801640501008B0168050000F894FE
:1005A200EE27ECBBF1E0FBBFEBBFE5BF8DE0A2E0C5
:1005B200BB27ED938A95E9F780E094E0A0E6ED93FE
:1005C2000197E9F7E4E7F5E085919591009761F0ED
:1005D200A591B59105901590BF01F00105900D927E
:1005E2000197E1F7FB01F0CFEFE5EDBFE4E0EEBFED
:1005F200C0E6D1E00C94FD026BD14DD0A8EBBBE07C
:100602000E94331162D102D0FECFFFCF4424552481
:10061200E0E1F0E04E165F06ECF53201F201709671
:100622006E167F069CF5D301A419B509189714F428
:10063200E0E001C0E1E0E03011F4979801C0979A40
:10064200E0E0F0E060E070E40E94A713D301A41997
:10065200B509E8E0F0E00E9473130E944F0F0E9478
:10066200EE0D0E948D11EBBBF301ACE0B5E0EE0F95
:10067200FF1FEA0FFB1F049008BAA3E0B0E00E943C
:100682003311F30131963F013197C8CFF201319610
:100692002F01BECF0895E0E0EA93EA93E8E3F2E0A7
:1006A200FA93EA93A0E00E944A0908950E94560F25
:1006B200E7EAF7EE6EE87CE30E9450120C94A30581
:1006C2000E945B0F49F40E94640F0E946B0F0E940C
:1006D200710F0E947E0F19C0ED36A0E0FA0749F4AF
:1006E2000E94640F0E946B0F0E94840F0E947E0F73
:1006F2000CC0E836A0E0FA0741F40E94910F0E9474
:100702006B0F0E94980F0E947E0F25C00E945B0F04
:1007120049F40E94640F0E94A50F0E94710F0E946B
:10072200AB0F19C0ED36A0E0FA0749F40E94640F3E
:100732000E94A50F0E94840F0E94AB0F0CC0E836E6
:10074200A0E0FA0741F40E94910F0E94A50F0E94B7
:10075200980F0E94AB0FF80119810881279608951E
:10076200AA9322970E94F31300E210E04FE150E0B7
:10077200E885F0E0E337A0E0FA0749F40E94B30FFE
:10078200A3E70E94BA0FA3E70E94C40F19C0ED3677
:10079200A0E0FA0749F40E94B30FADE60E94BA0F37
:1007A200ADE60E94C40F0CC0E836A0E0FA0741F49F
:1007B2000E94B30FA8E60E94BA0FA8E60E94C40FD7
:1007C2000A934A932A93A9850E94A1090E94FA13C7
:1007D2002B9608950A921A92FA926A937A938A93BE
:1007E2009A93AA93BA93EA93FA93EFB7EA93E5E856
:1007F200EDBDEEEEECBDF60131966F01ECE3F0E0FB
:10080200EC15FD05B1F4CC24DD24F50131965F0130
:10081200ECE3F0E0EA15FB0561F4AA24BB24F40141
:1008220031964F01ECE0F0E0E815F90511F4882467
:1008320099240ED0E991EFBFF991E991B991A9916B
:100842009991899179916991F990199009901895E6
:1008520055D1DA92CA92A3E783DFBA92AA92ADE6A1
:100862007FDF9A928A92A8E67BDFEEE1EA93E2E3E7
:10087200EA93A0E6B1E00E943509EEE1EA93E2E3F1
:10088200EA93A2E6B1E00E943509E6E3EA93EEE1DB
:10089200EA93A4E6B1E00E943509E4E0EA93EFE1CD
:1008A200EA93A6E6B1E00E943509EBE1EA93E3E0C0
:1008B200EA93A8E6B1E00E943509E0E2EA93EFE1AB
:1008C200EA93AEE10E94820C08957894C1DF089504
:1008D2002697E0E0EABBEBBBE7BBE8BBE4BBE5BBCA
:1008E200E1BBE2BBE3BFE2BFECBFEFBDE4E0EEBDC4
:1008F200E5E8EDBDEEEEECBDE0E0E7BDE6BDEBBD4B
:10090200EABDE9BDE8BDE4E0E9BFE0E0E5BFE4BF80
:10091200EAB9E0E8E8B9E0E0E0BFE6B9EDB9E6BF80
:10092200E4E5F0E0E883F983E0E0EA83EB83EC833B
:10093200ED83DE0180D07EC10000909A0000089510
:1009420090989498959808951A93F6DF13B3909817
:10095200E12F19910895AA931A93E0E0E4BB919ACA
:100962009298E981EF5F1E2F10FF02C0949A01C096
:10097200949811FF02C0959A01C09598E5DFE0783E
:10098200E9F7188162C3AA93A981E5DF0E94C90F22
:100992005CC3E0918901EA93E0918801EF73E0641E
:1009A200AE2FF1DFE0918901EA93E0918A01E86BD1
:1009B200AE2FE9DF0895AA93E981E0938801E295D9
:1009C200EF70E695E695E0938901E881E0938A016C
:1009D200E0DF3BC3A0918801AF5FA0938801A038FC
:1009E20018F0E0E0E0938801E0918801EF7331F4C0
:1009F200E0918801EA93A0918A01DDDF0895AA932C
:100A0200A0918901A8DF929A0E94C90F21960895A8
:100A1200A0918901A0DFE0E0E4BB919A929A94DF71
:100A22000895AA93E981EA93E9810E94D20FF0DF47
:100A3200B0DFEEDF0AC3BA93AA931A93889A899A0F
:100A42008A9A8B9A939A8C9A8D9A7ADF9398A4E6D3
:100A5200B0E00E943311939A10E0123040F41A93DE
:100A6200AFE391DF1A931395A0EC8DDFF6CFE1E0AF
:100A7200E0936B01E0E0E0936C01E981FA81309749
:100A8200A9F0A981BA810E948F13E0936F01F093BC
:100A9200700112960E948F13E0938401F0938501F6
:100AA200A981BA8114960E948F130AC0E0E0F0E097
:100AB200E0936F01F0937001E0938401F09385015C
:100AC200E0938601F0938701E1E0E0937101E09306
:100AD2007201E0937301EFEFE0937401E1E0E093C0
:100AE2007B01ECE7F1E0FA93EA93EFEFEA93A8E0F7
:100AF200B0E00E94CE0E02D0E1E0CEC20E94F51319
:100B020000E030E0E0916C01E03009F00FEF3830A6
:100B120078F4E0E0EA93A32F3F5F4DDF10E0A12FCE
:100B22001F5FA03820F4A02F0E94D80FF8CFEFCF7C
:100B3200E0E0EA93A0E03FDFE0E0EA93A0E0F3D355
:100B42000E94FC1324960895AA931A930A93AC81E7
:100B5200A03818F4AB81A03408F016C0EC81EA93F7
:100B6200AC815FDF1E2F15DFEB81E770A1E00E94F1
:100B72000F130E2FEA81E03011F0102B03C0E02F8B
:100B8200E0951E23A12F3BDF198108812596089548
:100B9200AA93A981A03818F4A881A03410F0E0E04B
:100BA20054C2E981EA93A9813CDF1E2EE881E770F5
:100BB200A1E00E940F13E12111F0E1E001C0E0E0A9
:100BC20044C2AA931A93ED81EA93AD812ADF1E2FC4
:100BD200E0DEE981E73011F0E83039F4EB81EA93A5
:100BE200AA810E94E90EEB8308C0E33021F4EB8175
:100BF200E095EB8302C0E03021F4EA81E0951E2308
:100C020002C0E23029F4EA81AB81EA231E2B0EC036
:100C1200E13029F4EA81AB81EA231E2707C0E430E0
:100C220029F4EA81E095AB81EA2B1E23A12F0E94D1
:100C3200D80F188126960895AA9323970E94F3133A
:100C4200A889A03848F4AF85A03430F4AE85A0302E
:100C520019F0AD85A03009F4C8C1EE85E887A889EE
:100C6200BB27EE85F0E0AE0FBF1FA138E0E0BE0764
:100C720020F0A889E0E8EA1BEE872D85AF85BB2727
:100C8200ED85F0E0AE0FBF1FA134E0E0BE0720F01B
:100C9200AF85E0E4EA1BED87A985A63009F05BC0C9
:100CA200EC85E13009F4A1C1E33039F4E091860129
:100CB200F0918701309709F498C10885ED85E69592
:100CC200E695E6953E2FE22FE77019F4AD852A17D7
:100CD200E9F0A02FBB27E32FF0E00E943313AA858F
:100CE200BB850E94DC0F269526952695532F5F9390
:100CF2005F5FE22FAF91EA1748F0102FE12F1150FA
:100D0200E03019F00E94E10FF9CFF1CFAE850A175A
:100D120011F1EE85AA85BB85F0E00E94DC0FED851E
:100D2200E77009F03F5F20E02F932F5FE32FAF9131
:100D3200AE1788F41E851F931F5FE02FAF91AE1789
:100D420018F40E94E10FF7CFEE85AE81BF81F0E08B
:100D52000E94DC0FE9CFEF85E7703E2FED85E03092
:100D620009F443C1EA85FB85EE83FF8310E008891D
:100D7200303009F065C0AD85A83008F45CC0E98563
:100D8200E03011F0E33009F402C0E73009F402C0A8
:100D9200E83009F402C0E63009F402C0E93009F48F
:100DA20002C0EA3021F40A93E8890E94D20F1F930D
:100DB2001F5FEE85AF91AE17B8F5A985A63061F435
:100DC20027DEE7DD0E94EE0FFA93EA9321DEAE2FD3
:100DD2000E94300FFFDD27C0E985E93011F450E0B1
:100DE2000EC0EA3011F45FEF0AC00E94EE0F0E94BB
:100DF200F70F5E2FE985E73011F0E83021F40E9409
:100E0200FD0F5E2F06C0E33011F4509502C0E030B2
:100E120021F4A52F0E94D80F06C00E940110EFEF07
:100E2200EA93AD85CEDEC3CFEF85E85FEF87ED8530
:100E3200E850ED87D1C05D8520E0E0E0ED877AC023
:100E4200E32FAD85AE0FA93020F42D85E0E0ED87CC
:100E520003C0E8E0E31B2E2F3A93A22F0E94DE0E7E
:100E62004E2FE985E630F1F41F931F5FEE85AF91B7
:100E7200AE17B8F40E940710AE2FE32F0E9417138B
:100E82000E940E10E32FA42F0E941713E095E12178
:100E92005E2B0E94EE0FFA93EA93A52F0E94300F69
:100EA200E3CF2CC0E93011F450E003C0EA30A9F4DA
:100EB2005FEF0E94FD0FAE2FE32F0E940F135E2FF4
:100EC2001F931F5FEE85AF91AE1730F40E940110A1
:100ED2004A93A0E076DEF4CF11C01F931F5FEE8528
:100EE200AF91AE1758F40E941910AE2FE32F0E9453
:100EF2000F13EA934A93AD8564DEEFCFED85E030C0
:100F020009F473C0AD85A83028F4ED85E21B5E2F8D
:100F1200E0E003C0532FED85E850ED8710E0EF8548
:100F2200E85FEF87E8E0E31B2E2F0889EA85FB855F
:100F3200EE83FF83E52FF0E0E45BFA4F4491E9850D
:100F4200E630F1F41F931F5FEE85AF91AE17B8F450
:100F52000E940710AE2FE22F0E940F130E940E1064
:100F6200E22FA42F0E940F13E095E1215E2B0E9435
:100F7200EE0FFA93EA93A52F0E94300FE3CF2CC015
:100F8200E93011F450E003C0EA30A9F45FEF0E94A7
:100F9200FD0FAE2FE22F0E9417135E2F1F931F5FCC
:100FA200EE85AF91AE1730F40E9401104A93A0E093
:100FB20008DEF4CF11C01F931F5FEE85AF91AE170D
:100FC20058F40E941910AE2FE22F0E941713EA93D1
:100FD2004A93AD85F6DDEFCFE885AA85BB85F0E0C3
:100FE200EA0FFB1FEA87FB87B9CE0E94FA136196CC
:100FF20008950E9426101CF0E0E0F0E026C0A881CF
:10100200B981A038E0E0BE071CF0EFE7F0E01DC0B8
:10101200E881F9811AC00E9426101CF0E0E0F0E09D
:1010220014C0A881B981A034E0E0BE071CF0EFE350
:10103200F0E00BC0E881F98108C0AA93E981EA9344
:10104200E981EA93A0916B017FDD22960895AA932C
:101052001A93AA81A03818F4A981A03418F00E942A
:101062002D101AC0E981E7701E2FE981E695E695F9
:10107200E695E983103011F0EF5FE983AA81BB277F
:1010820088279927E981FF27662777270E943B1344
:10109200EC5FFF4F6F4F7F4F188123960895BA93ED
:1010A200AA9323970E9432108F01002E012AD1F0B9
:1010B2000E9439100F820E9439100E820E9439104C
:1010C2000886EB85A885EA1768F0F8010F5F1F4FC5
:1010D2005491BB27EE27A50FBE1FEB85F0E0EA1760
:1010E200FB0730F0E0E0F0E00E94FA132C9608953E
:1010F200EE81E695E695E6954E2FEE81E77009F0D2
:101102004F5FEF81E030B9F0A985BA85EC93A885ED
:10111200EB85EA1BF0E0DF01EF81F0E00E94331380
:10112200DF01E42FF0E00E943313E00FF11F0E9471
:10113200FA130C943E0E9801E52FF0E00E0F1F1FDC
:10114200A885AF5FA887A150EB85AE1760F4F901BF
:101152002F5F3F4FA491B0E0E42FF0E00E943313E1
:101162000E0F1F1FEDCFF901E491A985BA85EC930B
:10117200F8010E94FA130C943E0EE0E0E0936D0138
:10118200A0916E01BB270E943E10F0E0AE0FBF1F80
:10119200E0917201F0E0AE0FBF1F3DDFE0936E0100
:1011A2000895AA9321970E943210309709F457C0EC
:1011B200AF81AA3009F44FC0EF81EA93DE0117969E
:1011C2006EDFAF01309719F40E94FA1335C3E09134
:1011D2007101AE81EA0F3E2FA0916D01BB270E94E3
:1011E20045100138E0E01E0718F0032F1127C5DF74
:1011F200E0916D01EA93E0916E01EA93E885EA934A
:101202000E943E10EA93E1E0EA935A934A93A7E0E0
:1012120013DDE0916D01AE81EA0FEA93E0916E0178
:10122200EA93E0917101EA930E943E100E944A10F3
:10123200E0916D01EA93A0916E010E943E10EA0FC7
:10124200EA933A93E09172010E944A10E0E8F0E0DA
:10125200E017F10721F491DF0E94FA13EDC2009327
:101262006D010E94FA13E8C2BA93AA931A93EC8111
:10127200EA93AC8158D0A981BA81ED91A983BA834E
:101282001E2FE03019F0A12F8CDFF5CF18810C94BE
:10129200DC0EAA930E94F513AC81A53018F5ED81FE
:1012A200FE8105910E94541015910E9454102591BF
:1012B2000E9454103591ED83FE83E885EA93E88518
:1012C200EA930A932A93E1E0EA93EA85FB85FA938B
:1012D200EA93AB85B1DC0A93A22FB9DE0E94FC131C
:1012E2000C94C00E0E942D100E94FC130C94C00E90
:1012F200AA93EA81EA93EA81EA93E0917401AA81CE
:10130200EA2319F0E0916B0102C0E0916C01AE2F6B
:101312001BDCE881EE0FE883E03011F4E1E0E883C2
:10132200E8810C942E0FAA93A981BB2762DEE09379
:101332006D01A881BB276FDEE0936E010C94E70E6E
:10134200AA932B970E94F313AC89BB2752DEEC8B36
:10135200AA89BB274EDEEA8BAB89BB275CDEEB8B0F
:10136200A989BB2758DEE98BEA89E0936D01E989F7
:10137200E0936E01E1E0E887E989AB89EA1771F54C
:101382001C89AA891A1731F41A93EC89EA93A1E00D
:10139200AFDFC8C0AA891A1730F4EA89E11B0E2F01
:1013A20041E050E006C0AA89E12FEA1B0E2F4FEF61
:1013B2005FEF3B89E0E0EE830E94571038F41A9306
:1013C2003A933395AA8594DFEF83F6CFEF81E887CE
:1013D200140FE02F0150E03061F7A4C0EA89AC8914
:1013E200EA1739F53B89A9893A1730F4E989E31BF1
:1013F2002E2FE1E0F0E006C0A989E32FEA1B2E2F91
:10140200EFEFFFEFED87FE871C89E0E0EE830E949D
:10141200571030F41A9313950E945F10EF83F7CFA1
:10142200EF81E887ED853E0FE22F2150E03061F732
:1014320079C0E0E0EE830E94571008F073C01C8967
:101442003B89E1E02E2F0E2FAA89BB27EC89F0E021
:10145200AE1BBF0BAD0155232AF40FEFFA010E9418
:101462000313AF01FA01EE0FFF1FEF87F88BA98973
:10147200BB27EB89F0E0AE1BBF0BAD87BE87AE8505
:10148200AA233AF42FEFED85FE850E940313ED8720
:10149200FE87ED85FE85EE0FFF1FEB87FC871A9313
:1014A2003A93A1E025DFE887E0E0E987EA87AD85A6
:1014B200BE854A175B07BCF0100FEB85FC850E94C6
:1014C2006310A985BA854A175B072CF4320FAF85E2
:1014D200B8890E946A101A930E945F10E887EA890D
:1014E200E11751F718C0320FEF85F8890E94631097
:1014F200ED85FE85A985BA85EA17FB072CF4100F46
:10150200AB85BC850E946A101A930E945F10E8871F
:10151200E989E31741F7EB89EF5FEB8BE989EF5F2D
:10152200E98B89CF0E94FA1365960895BA93AA931C
:1015320023970E94F313ED85E887E0917301EF830F
:10154200E0916B01EE83AA89BB27EF850E944510CB
:10155200A989BB27E8890E947110E8890E94781046
:1015620071F0E885E078F1F4AD85BE85EAE5F0E05A
:101572000E9480101CF00E9489100CF413C03323C7
:1015820012F00E948E10AF81A23020F02230E0E0F3
:101592003E070CF407C00E94921021F40A93A22F76
:1015A200A1504BDDE885E878E83891F0E885E078ED
:1015B200C9F4AD85BE85A25FBE4F0E949B103CF070
:1015C200AD85BE85A25FBE4F0E94A0100CF40AC07A
:1015D2000E94A51038F00E94AC1021F40A93A42FA7
:1015E200AF5F2BDDAA89BB27EF85F0E0AE1BBF0BF7
:1015F2008D0111230AF445C0E885E278E23891F0C2
:10160200E885E07811F5AD85BE85A65ABF4F0E94E8
:101612009B103CF0AD85BE85A65ABF4F0E94A0101C
:101622000CF413C0332312F00E948E10AF81A2304B
:1016320020F02230E0E03E070CF407C00E94921036
:1016420021F40A93A22FA150F8DCE885E478E4386B
:1016520071F0E885E078A9F4AD85BE85EEE0F1E0B1
:101662000E9480101CF00E9489100CF40AC00E9493
:10167200A51038F00E94AC1021F40A93A42FAF5F9A
:10168200DCDCAA89BB27E8890E944510A989BB270F
:10169200EF850E947110EF850E94781081F0E88535
:1016A200E078F1F4EB85FC85AD85BE85AE17BF070A
:1016B2002CF0E985FA85EA17FB070CF411C03323F5
:1016C2007AF00E948E10AF81A23050F0E02FEE5FD0
:1016D2000E94B51029F4E02FEF5FEA93A22FADDC50
:1016E200E885E878E83871F0E885E078C1F4AD85FE
:1016F200BE85E8E6F1E00E9480101CF00E9489108D
:101702000CF40DC00E94A51050F0E02FEE5F0E9475
:10171200BD1029F4E02FEF5FEA93A42F8EDCAA8993
:10172200BB27E889F0E0AE1BBF0B8D0111230AF441
:1017320050C0E885E278E23871F0E885E07809F592
:10174200AD85BE85E4EBF0E00E9480101CF00E94A3
:1017520089100CF416C03323A2F00E948E10AF81C0
:10176200A23020F00230E0E01E070CF40AC0E02FA5
:10177200E2500E94B51029F4E02FE150EA93A22F23
:101782005CDCE885E478E43891F0E885E07809F5F6
:10179200AD85BE85AC54BF4F0E949B103CF0AD8519
:1017A200BE85AC54BF4F0E94A0100CF412C00E9420
:1017B200A51020F00230E0E01E070CF40AC0E02F72
:1017C200E2500E94BD1029F4E02FE150EA93A42FC9
:1017D20034DC0E94FA1363960895AA930E94F513CB
:1017E200AF81BB27ED81F0E0AE1BBF0B02DC1E2FE9
:1017F200AF81BB27ED81F0E0AE0FBF1FFADB0E2FEA
:10180200AE81BB27EC81F0E0AE1BBF0B04DC3E2FA8
:10181200AE81BB27EC81F0E0AE0FBF1FFCDB2E2FA9
:101822001A933A930A93A32F8BDD1A932A930A935E
:10183200A22F86DD0E94FC1328960895AA930E9487
:10184200F313A985A03818F4A885A03420F00E94CB
:10185200FA130C94540D50917301E52F5150E0305E
:1018620009F44BC0EF81E03021F40E94FA130C948A
:10187200540DEF81E150EF83EF5F0E2FF0E0A5E012
:10188200B0E0AE1BBF0BFD010E941F130E94241388
:101892009F0110E0AE81A03459F40E94C5101A9342
:1018A200A02F9BDF0E94C5100A93A12F96DF0FC0C5
:1018B2000E94C5101A930A93EA85F0E0FA93EA931C
:1018C200E0E0F0E0FA93EA93A0E0B0E02FDE1F5FE1
:1018D20033231AF4E12FF0E008C00150A12FBB27F7
:1018E200E02FF0E0AE1BBF0BFD01EE0FFF1F3196A4
:1018F2002E0F3F1F011770F6B0CF0E94FA130C94FF
:10190200540DAA93EA81EA93EA81EA93EA81EA937F
:10191200AFE894DF0C942E0F0E94AC137B816A8196
:10192200F981E88177FB770F67FD7160972F9E57EA
:1019320081F078F0983190F4AA27BB278827089481
:101942008795B795A7959A95D1F7EA23FB23682344
:1019520005C0E8947727EE27FF2766276F777695ED
:1019620008F4606877F9A991B99189919991EA1778
:10197200FB076807790797FB08950E94560F0E949C
:101982008D0C0E94A21321F40E94CA100C944D0FD8
:10199200DEF70E94CA100E94CD100C944D0F0E94D7
:1019A200AC1324971A930A930E94D4100E94E8134E
:1019B2002CF0EFEFFFEF6FE77FEF73C00E94D910BB
:1019C2000E94A713ADB7BEB711971F930F930E9442
:1019D2003D110F911F910E94DE100E94D410E3EF7F
:1019E200F4E065E37FE30E94E31240F40E94E31017
:1019F2000E9400120E94DE10015010400E94D91075
:101A02000E94CD107F936F93FF93EF930E94D910A2
:101A1200A0E0B0E080E89FE30E940012AF91BF9186
:101A22008F919F910E949E120E94DE100E94E310ED
:101A32000E94E510A6E2B2E485E69FE30E94EC1064
:101A4200EEE4F1E164E570E40E94F1100E94D4102A
:101A52000E9450127F936F93FF93EF930E94F610B0
:101A6200ADE4B1E184ED9FE30E94F911AF91BF9122
:101A72008F919F910E949E127F936F93FF93EF939A
:101A8200F8010E9429130E94C611A8E1B2E781E37E
:101A92009FE30E945012AF91BF918F919F910E943C
:101AA2000012198108812A9608950E94AC13289782
:101AB2001A930A930E94FB10E0E5FCEA6EEA72ECCC
:101AC2000E94E31218F40E942D1083C0EA85FB8560
:101AD2006C857D850E94E01329F4E0E0F0E060E887
:101AE2007FE377C00E94FB10E8E1F2E761EB72E46A
:101AF2000E94E31209F008F405C0EFEFFFEF6FE771
:101B02007FE767C00E94FB10EBE3FAEA68EB7FE332
:101B12000E945012EA87FB876C877D870E94FB1028
:101B22002CDF0E948F118F010E94FB100E9429134B
:101B32000E94C6110E94F110DF01CB010E94001128
:101B42000E94F1100E94DE100E94E3100E94E51034
:101B5200ADE6BCE48CE69DE30E945012A6EAB3EE29
:101B620086EE90E40E9400120E94D4100E9450124D
:101B72000E94DE100E94F610A8E2BDE886EA91E417
:101B82000E940012EA83FB836C837D830E94D9103A
:101B9200AA81BB818C819D810E940012A3EFB4E0D7
:101BA20085EB9FE30E9450127F936F93FF93EF9315
:101BB2000E94D4100E94F6100E94F911AF91BF91B9
:101BC2008F919F910E949E120E94A713D8010E949A
:101BD2004E11198108812E9608950E94AC13249704
:101BE2000E9405110E94E01319F40E942D1045C0B5
:101BF200A885B9858A859B850E94E81394F40E9482
:101C02000A110E94E01329F4E0E0F0E060E87FE3CB
:101C120034C0A885B9858A859B850E940F1145DF4E
:101C22002CC00E940A11DE010E948F110E949313A0
:101C32000E94CA100E94C611DF01CB010E940A1144
:101C42000E94EE1319F00E942D1017C00E94051178
:101C52000E945A11DF01CB010E940F1126DFE88793
:101C6200F9876A877B87E881E17019F40E94051180
:101C720004C00E9405110E945A112C9608950E94D8
:101C8200AC1324971A9310E00E941611E3E8F9EFBF
:101C920062E27EE30E9450120E941B116EDE0E94DD
:101CA20016110E94F1100E941B110E9400110E9445
:101CB200E31209F008F409C00E942011A0E0B0E08C
:101CC20080E09FE30E94251111E00E941611E0E0DE
:101CD200F0E060E87EE30E94E31209F008F406C037
:101CE2000E9416110E9400110E942511103041F02D
:101CF2000E9420110E945A11ED83FE836F83788720
:101D02000E9420110E9416110E945012E983FA8348
:101D12006B837C83A1EBB4EC86E292E40E94EC102C
:101D2200EDE1F5EE6DE272E40E94F1100E942C11D9
:101D3200ACE4B3E584E091E40E9400120E94161123
:101D42000E9450127F936F93FF93EF93E981FA8180
:101D52006B817C81A1E1BDEE8EED9FE30E940012BA
:101D62000E942C11AEE5BBE788EA9FE30E940012B5
:101D7200AF91BF918F919F910E949E1218812996D7
:101D820008950E94560FEBEDFFE069EC7FE30E949D
:101D9200F911DF01CB0173DF7FC0BA93AA93B98136
:101DA200A881109631F0FC81EB816A8161931197D1
:101DB200E9F7EB81FC8125960895AA93E881F0E08A
:101DC200E45BFA4FA491E9810E940F1322960895D1
:101DD200AA931A93E981E73011F0EA3019F41091CD
:101DE2006B0109C0E93019F410916C0104C0E830AC
:101DF200A1F410917B01E0916C01E03049F01030C8
:101E020019F0EFEF188129C0EA81E095188125C009
:101E1200103019F4E0E0188120C0EA8118811DC059
:101E2200BA93AA93EA81E13021F4E881F981E4913D
:101E320014C0E23029F4A881B9810E94C3130DC0F5
:101E4200E33041F4A881B981E0918401F0918501E8
:101E5200099503C0A881B981EC9123960895AA93AC
:101E6200EB81E03029F4E881A981BA81EC9314C0B6
:101E7200E23031F4E881A981BA810E94CF130CC00B
:101E8200E33051F4E981FA81FA93EA93AA81E0916D
:101E92008601F09187010995249608950E942913DD
:101EA2000E94C611DF01CB0108950E94AC130E946B
:101EB2009D130895AA931A930A93EA81F0E0E337F7
:101EC200A0E0FA070895EB81FC81A6E0B0E00E9451
:101ED2005B13E4CF0E945703DF01CB010C94400E49
:101EE200A0E0B0E088ED91E40E945012AD81BE8185
:101EF2000E942E130E94B31308950E9400120E94A2
:101F02008F118F010895A0E0B0E088EB91E40E9468
:101F12005012AD81BE810E942E130E94B313089508
:101F2200EB81FC81AEE1B0E00E945B13B7CFA0E091
:101F3200B0E080E991E40E945012AD81BE810E941E
:101F42002E130E94B31308950E945703DF01CB01A1
:101F52000C94C20E0E94B6130E94F9110E948F11B6
:101F62008F0108951A930A93EB85FC85FA93EA93FD
:101F720008950E9461039F015A934A93EB85FC8561
:101F8200FA93EA9308950E948703EE83FF830895EC
:101F92009198EFEFE4BBE881E5BB0E949D040C94AD
:101FA200A104E695E695E695AE2F0C94DC040E941A
:101FB20000050C94EB04EA0FFB1FEE83FF830895E8
:101FC200EC85EA93EF81F8853196EF83F8873197B4
:101FD200FA93EA93A0E00C94300FEC85EA93EF8138
:101FE200F8853196EF83F88731970895662777272A
:101FF200DF01CB010C94110F5A93AA850C94E90EC0
:102002000A930395E889EA935A9308950A930395EC
:10201200A8890E941205E42308955E2FEC85EA93B5
:10202200AF81B885882799270E94110F1E2E089527
:102032000A930395E889EA93EE85EA93E985FA859E
:102042003196E987FA873197D1CFBA93AA93A881BB
:10205200B9810E94E4130895E0E0F0E060E070E0EE
:1020620008950E94F313E0916F01F09170010895B9
:10207200F8010F5F1F4F04900895E0916F01F091F6
:1020820070013196E4910895F0E0EA0FFB1F8F0191
:102092000895EA93E0E0EA93E0E0F0E0FA93EA934D
:1020A200A9E00C941D06ED83FE830895AE81AF5F17
:1020B200AE83A150E0917301AE1708953A93AA85B9
:1020C2000C947909A985BA85EA0FFB1FE987FA877B
:1020D2000895E985FA85EA1BFB0BE987FA870895DB
:1020E200F0E0AE1BBF0B9D01A989BB270895F0E06C
:1020F200EA0FFB1FAF01E885E178E1380895EA1B9A
:10210200FB0B0F01DF01EB85FC85AE17BF070895BE
:10211200E985FA85E015F10508950A93A22F0C943A
:102122001E080A93A22FA2500E94C905AE2FEE816B
:10213200EA170895EB85FC85AE17BF070895E98578
:10214200FA85EA17FB0708950A93A42F0E941E0836
:10215200AF81A23008950A93A42FAE5F0E94C905F1
:10216200AE2FEE81EA170895EA93A22F0E94C905C5
:10217200AE2FEE81EA170895EA93A42F0E94C905B3
:10218200AE2FEE81EA170895E985EA93E985EA938D
:1021920008950E9498130895A0E0B0E080E89FE3BC
:1021A2000E94F9110895AE81BF81888599850895AD
:1021B200EE81FF81688579850895EE83FF836887C4
:1021C20079870895F5DFEFCF0E945012EA83FB83EF
:1021D2006C837D8308950E945012DF01CB01089524
:1021E2000E94B6130E94F9110895EA81FB816C8165
:1021F2007D810895AA85BB858C859D850895E0E043
:10220200F0E060E07FE30895E885F9856A857B85E3
:102212000895EC81FD816E817F8108950E94D00C2A
:10222200AC81BD818E819F81D6CFAD81BE818F81F0
:1022320098850895ED83FE836F837887F6CFED81CD
:10224200FE816F81788508950E94F911ED83FE83E6
:102252006F8378870895A981BA818B819C810E94BE
:1022620050120895109639F080ED97E00197F1F73A
:10227200A8951197C9F70895E991F9916991799112
:1022820077FB660F771F88277E57880B7D938C9389
:102292007EE7769567956EF00895E991F9916991D7
:1022A200799177FB660F771F7A0F769567950EF017
:1022B200089530976040704009F070580895552392
:1022C20042F4503811F4E0FF04C03196691F791FBF
:1022D2006BF050E8572711F45F93CFC05F3F31F0A6
:1022E200660F000C57956795752F08955F93002030
:1022F2000AF0CFC0C8C050E8192E1522880F991FC6
:102302009527550F879550E8072E0522660F771FF0
:102312007527550F67950895689401C0E8945F93F7
:10232200F2DF703818F07F3F08F4A7C056E1571B60
:10233200AAF4519558300EF4593030F0EFEFFFEF18
:102342006FEF7FE777F91AC077275523B9F0EE0FC1
:10235200FF1F661F771F5A95D1F710C07727583095
:1023620028F0EF2FF62F672F5850F9CF552331F071
:1023720076956795F795E7955A95D1F700200AF477
:1023820045D15F910895689401C0E8943097604008
:102392007040B1F0002426F0772312F4009436D175
:1023A200172E7EE1112032F07A95EE0FFF1F661F85
:1023B200111CF9CFEF2FF62F612D5F938ADF5F910A
:1023C20008954F93AF01FD01DA01AB01BC01CA01CF
:1023D200402D012C142E4F910895EA0FFB1F681F08
:1023E2000895E095F0956095EF5FFF4F6F4F089568
:1023F2005F9381DF903871F150E8152604C05F9336
:102402007ADF903839F1703821F1572F591B2BF1AF
:1024120012F4D7DFFACF583118F0AA27BB27882742
:10242200583028F0AB2FB82F88275850F9CF5523B2
:1024320029F08695B795A7955A95D9F7502D51252C
:1024420072F0CBDF38F46795F795E795739513F43F
:1024520020C0B7DF3EDF5F910895D8F7FBCFEA1BBC
:10246200FB0B680B51F010F40094BBDF662392F370
:10247200EE0FFF1F661F7A95CBF7EE27FF27662721
:1024820077275F910895EFEFFFEF6FE77FEF5F919F
:102492000895EFEFFFEF6FE77FE75F9108955F9396
:1024A2002ADF703851F3903841F301240894791FE0
:1024B20023F41CF300203AF3ECCF0F921F932F93D7
:1024C2003F934F93112722279927689FA0018F9F3F
:1024D200302D410D591F6B9F300D411D591F8E9F8D
:1024E20027D0BF9F25D06A9F23D0BE9F1DD0AF9F0C
:1024F2001BD0AE9F110D291F391F491F591FE32FF2
:10250200F42F652F522F4F913F912F911F910F90D2
:1025120066232AF0550FEE1FFF1F661F02C0739538
:102522004BF2CDDE5F910895100D211D391F02C0BF
:10253200200D311D491F591F08955F93DCDE70384D
:1025420021F411200AF49FCFA4CF903809F495CF3B
:1025520001240894970B1BF4D4F30020F3CF792FB6
:102562001F932F933F934F93112411272227332731
:102572004427552790E2AE17BF078607410730F080
:10258200AE1BBF0B860B410B089401C08894551FEC
:10259200221F331F111CAA1FBB1F881F441F9A959D
:1025A20051F7F901612D4F913F912F911F916623B0
:1025B20032F0550FEE1FFF1F661F7A9543F27FDE42
:1025C2005F91089599239AF0772342F0971748F084
:1025D20029F4AE17BF07860720F031F0989488944B
:1025E20008959894089408951894889408957723E8
:1025F200C2F7971798F3A9F7EA17FB07680788F35A
:1026020099F3ECCFF195E195F0400895F09560953E
:102612007095E195FF4F6F4F7F4F0895EE230E2E79
:10262200EA2F19F0EE0F0A94E9F70895EE230E2E21
:10263200EA2F19F0E6950A94E9F70895EE0FFF1FC5
:10264200EE0FFF1F0895F595E795F595E795089527
:102652006F2F660F660B762F08958B2F880F880BCE
:10266200982F0895FA9FF02DEB9FF00DEA9FE02D31
:10267200F10D08957A9F702D6B9F700DF89F700D6C
:10268200E99F700D6A9F602D710DFB9F600D711D9A
:10269200E89F600D711D8827FA9FF02D610D781F4C
:1026A200EB9FF00D611D781FEA9FE02DF10D681F71
:1026B200781F089525D0D6DF0EF4A4DF08950024F4
:1026C200112490E1AA0FBB1F001C111C0E1A1F0A35
:1026D20018F40E0E1F1E01C0A1609A9599F7FD0114
:1026E200D0010895E894B7FF04C0A095B095119663
:1026F2006894F7FD87DFE3DFFD010EF483DF0895C1
:10270200E894F7FF02C07EDF6894B7FF06C0A09589
:10271200B095119600F8039400FA0895ED91FC919A
:1027220011970895ED93FD936D937C930895E8813D
:10273200F9816A817B810895A881B9818A819B810F
:102742000895E883F9836A837B8308957A936A9371
:10275200FA93EA9308959A938A93BA93AA9308955F
:10276200689401C0E89401D011DE182E862F612DE5
:10277200192E972F712D1B2EBF2FF12D1A2EAE2F32
:10278200E12D0895E199FECFFF93FFB7F894AEBB18
:10279200BFBBE09AEDB3FFBFFF910895E19B02C07A
:1027A200A895FCCF9FB7F894AEBBBFBBE09A8DB3A0
:1027B200E81719F0EDBBE29AE19A9FBF08953097AE
:1027C20060407040089500240A160B060895002404
:1027D2000A160B06080609060895EA17FB0768079A
:1027E200790708955A934A933A932A931A930A932C
:1027F20008955D814C813B812A8119810881089568
:00000001FF
