:060000000C9450000C946A
:1000060000000C9400000C9400000C94A4000C94C6
:1000160088000C9400000C9400000C9483000C944F
:1000260000000C9400000C9400000C9400000C944A
:1000360000000C9400000C9400000C9400000C943A
:1000460000000C9400000C9400000C940000102793
:10005600E80364000A00010000100001100001001E
:100066000000000000000000000053285350293A09
:1000760020313672706D0053284443293D25642093
:1000860072706D0080C00A00040066000D006001F9
:100096007000020089018A000000F894EE27ECBB8C
:1000A600F1E0FBBFEBBFE5BF8DE0A2E0BB27ED9320
:1000B6008A95E9F780E094E0A0E6ED930197E9F7E9
:1000C600ECE8F0E085919591009761F0A591B591E6
:1000D60005901590BF01F00105900D920197E1F78B
:1000E600FB01F0CFEFE5EDBFE4E0EEBFC0E6D1E007
:1000F6000C947D00789423D13CD038D0FECFFFCF2E
:10010600EA93E1E07E2EE99118950A921A92FA9204
:100116006A937A938A939A93AA93BA93EA93FA93F1
:10012600EFB7EA9377D0E991EFBFF991E991B991E9
:10013600A9919991899179916991F990199009906C
:100146001895EA93FA93EFB7EA93E6E0E4BDF20175
:1001560031962F01EAE1F0E0E415F50511F44424A7
:100166005524E991EFBFF991E9911895E9B3ECBFF0
:100176000895E0E0EA93A0E037D1A0E6B1E06AD1C5
:100186000FD0E0E0E8BBA4EFB1E00E946D0425D0FB
:10019600A4EFB1E00E946D04E0E0E8BB34D108951D
:1001A600E0E3E8BB442455240E942804ECF3E0E68F
:1001B600E8BB442455240E942804ECF3E0ECE8BB99
:1001C600442455240E942804ECF3E0E9E8BB4424C7
:1001D60055240E942804ECF30895E0ECE8BB44247F
:1001E60055240E942804ECF3E0E6E8BB4424552499
:1001F6000E942804ECF3E0E3E8BB442455240E9463
:100206002804ECF3E0E9E8BB442455240E942804C2
:10021600ECF30895E1E0E71511F47724089586B428
:100226009924A7B4BB24FA2DE0E0E829F929E09344
:100236006D01F0936E01EC19FD09AFE6B1E00E9485
:10024600AE050E94DD040E94B705C0906D01D090F6
:100256006E01A0916F01B091700180917101909132
:100266007201E0E0F0E068E472E40E940B05A0ECA5
:10027600B1EE84E69CE40E945905A5E7B1E00E9430
:10028600A604ED93FC93E0917301F0917401FA9347
:10029600EA93A0917501B09176013CD0E030E9F087
:1002A600A0917701B0917801159799F4E0917501C5
:1002B600F0917601E0937301F0937401A0917501BA
:1002C600B09176010BD0E0E0E0937701E0937801FE
:1002D60004C0A7E7B1E00E942D040895BA93AA933B
:1002E600E9E7F1E0FA93EA93EDE7F0E0FA93EA93AF
:1002F600EC81FD810E94AE050E94C00584E00E944B
:10030600DB032896E0E0EA93A1E06ED0A9E7B1E02E
:10031600A1D077C0BA93AA93A881B981EA81FB815B
:10032600EA1BFB0BDF0135973CF4EBEFFFEFEA1717
:10033600FB0714F4E0E001C0E1E02496089504D040
:1003460012D02ED00DD00895E0E0EABBEBBBE8EF6B
:10035600E7BBE0E0E8BBE4BBE5BBE1BBE2BB08957D
:10036600A0E189D00895E2E6E3BFE0E0E2BFEAE17A
:10037600ECBFE0E0EFBDE2E0EEBDE0E0EDBDECBDE0
:10038600E7BDE6BDEBBDEABDE9BDE8BDE2BDE5E022
:10039600E5BDE6E0E4BDE0E0E3BDE4E6E9BF0895DF
:1003A600E0E0E5BFE4BF0895AA93E5B3EF70AE2F92
:1003B600E881E07FEA2BE5BB8DE08A95F1F7AA9A02
:1003C6008DE08A95F1F7AA988DE08A95F1F780C0BD
:1003D600AA93A881E9DFE881E295E883A881E4DFB2
:1003E60085E88A95F1F774C0AA93E881F0E0E757AB
:1003F600FE4FE081A981AE0FEBDF6980E881E093D3
:100406008D0122960895A2E00E943304ACE0E0DF5D
:10041600A1E00E943304E0E0E0938D016E2E089582
:10042600AA93A881AA3021F0E0918E016E1660F0A1
:10043600E0E0EA93A0918D01AF5FA0938D01D4DF38
:10044600A881AA3009F444C06394A89AA881C0DFA1
:10045600A8983EC0BA93AA931A93A981BA81ED913E
:10046600A983BA831E2FE03019F0A12FD9DFF5CF6B
:10047600188123960895AA93E4B3E06FE4BBA29A89
:10048600A09AA19AAA98A898A998E881E0938E01C3
:10049600E058E0938B01E881E054E0938C01A4E1FD
:1004A600B0E00E946D040E9439040E9439040E9443
:1004B6003904A0E279DF88EC90E00197F1F7A8E231
:1004C60087DFA4E085DFA5E883DFA6E081DF9BDF89
:1004D60021960895BA93AA931A930A93AA81BB8187
:1004E60012960E94B305309729F1AA81BB81149612
:1004F6000E94B3058F01309761F00230E0E01E07DD
:1005060080F0F80131978F01AA81BB811496ED9393
:10051600FC93AA81BB8112960E942D043197AC816F
:10052600A083AA81BB810E94B305FF2312F00E941B
:100536002D0406C0AA81BB81EFEFFFEFED93FC937C
:100546001981088125960895BA93AA9326970E9441
:10055600C50510E0AC85BD85E0E0F0E0ED93FC93C9
:10056600EA89FB893196EA8BFB8B3197E4912E2F32
:10057600E03009F415C1E12FE03039F4253211F4E9
:1005860011E002C00E9441040AC1E130A9F42532FB
:1005960019F40E94410402C112E040E000E02D324D
:1005A60011F401E0FCC02B3211F44BE2F8C020320A
:1005B60011F440E2F4C002C0E23039F450E013E036
:1005C600203311F40068EBC003C0E33009F0E7C044
:1005D600203310F02A3308F007C0AAE05A9F502DA6
:1005E600E22FE0535E0FDBC0E22FE33649F40E94B0
:1005F6004804E889F989A481AA930E944E04CEC0D2
:10060600E33741F40E9448040E9454040E940F04F8
:100616001E2F0AC0E03761F40E9448040E94540469
:100626000E941B041E2F086002600F7730E034C062
:10063600E43611F0E93611F4046002C0E53731F40E
:10064600E4E5F0E0EE83FF8315E00CC0E83511F435
:10065600086003C0E83709F0A1C0EEE5F0E0EE83DC
:10066600FF8314E002FF14C00E9448040E945E0447
:10067600AB85AA233AF4EA85FB850E94A205EA87A0
:10068600FB874DE2403011F01F5F01C00B7F04C0B5
:100696000E9448040E945E0400FD11C0151778F4FC
:1006A60007FF08C002FF04C00B7F242F115001C0B2
:1006B60020E301C020E20E9441045150EFCF312FC8
:1006C60001FF17C03030A1F003FF06C0EE81FF81A5
:1006D6002591EE83FF8305C0AE81BF812D91AE8348
:1006E600BF830E944104503009F051503150EACF87
:1006F6004BC020E3EE81FF810E94BC05E887F987A5
:10070600EE81FF813296EE83FF83E885F985AA851F
:10071600BB85AE17BF0750F02F5FA885B985EA8560
:10072600FB85EA1BFB0BEA87FB87EFCF2A3328F012
:1007360003FF02C0295F01C0295D04FD1AC02133F1
:1007460020F4A885B985119709F409C0531710F04C
:1007560000FF01C013C020E207FF0BC020E30061C9
:1007660002FF07C00B7F4A930E944E04503009F0E7
:1007760051500E944104503009F051503150A88523
:10078600B985129708F0B5CF00FF08C0503031F098
:100796005150E0E2EA930E944E04F8CF10E0E0CE1A
:1007A600AC85BD850E94B3050E94CC05649608956C
:1007B600FF92F82E26970E94C7050E94660430977E
:1007C60019F4EFEFFFEF23C0DE0116960E949E0597
:1007D6008D010E946604EE83FF83E0E0E887E987E7
:1007E600DE011A960E949E050E94B305FA93EA93CB
:1007F6001A930A93EDE6F2E0FA93EA93DE011A966B
:10080600A3DE9F01AE81BF81E0E0EC93F9010E9477
:10081600CE052A96FF900895BA93AA93A991B99105
:10082600EE27FF276D91662311F03196FBCF0895D1
:10083600BA93AA93AA27BB27E991F99105900020BC
:1008460011F01196FBCFFD010895E9E1F0E04E1697
:100856005F060895ED91FD913196FE93EE9308950E
:100866000E94EB01A3E0B0E00C946D04A0E30E94AB
:10087600D70188EC90E00197F1F708952A93AD85AA
:10088600BE85EF85F88909950895E889F989349731
:10089600E88BF98B0895AD85BE85EF85F8890995B6
:1008A6000895A889B98914960E94B305EE83FF833B
:1008B600AE81BF810895A889B98914960E94B305AF
:1008C600EA87FB870895DE011C960E949E050E941A
:1008D600B3050895109639F080ED97E00197F1F78A
:1008E600A8951197C9F70895552342F4503811F485
:1008F600E0FF04C03196691F791F6BF050E8572757
:1009060011F45F9373C05F3F31F0660F000C57958B
:100916006795752F08955F9300200AF073C06CC029
:1009260050E8192E1522880F991F9527550F879580
:1009360050E8072E0522660F771F7527550F679516
:100946000895689401C0E8945F93F2DF703818F058
:100956007F3F08F44BC056E1571BAAF45195583017
:100966000EF4593030F0EFEFFFEF6FEF7FE777F9D6
:100976001AC077275523B9F0EE0FFF1F661F771FA2
:100986005A95D1F710C07727583028F0EF2FF62F59
:10099600672F5850F9CF552331F076956795F7951F
:1009A600E7955A95D1F700200AF4CDD05F910895C6
:1009B600689401C0E894309760407040B1F000241C
:1009C60026F0772312F40094BED0172E7EE1112074
:1009D60032F07A95EE0FFF1F661F111CF9CFEF2F2D
:1009E600F62F612D5F938ADF5F910895EE27FF272B
:1009F600662777275F910895EFEFFFEF6FE77FEFA9
:100A06005F910895EFEFFFEF6FE77FE75F9108953E
:100A16005F9386DF703851F3903841F301240894D0
:100A2600791F23F41CF300203AF3ECCF0F921F93A7
:100A36002F933F934F93112722279927689FA00151
:100A46008F9F302D410D591F6B9F300D411D591F32
:100A56008E9F27D0BF9F25D06A9F23D0BE9F1DD0D3
:100A6600AF9F1BD0AE9F110D291F391F491F591F5C
:100A7600E32FF42F652F522F4F913F912F911F9106
:100A86000F9066232AF0550FEE1FFF1F661F02C048
:100A960073954BF229DF5F910895100D211D391FC3
:100AA60002C0200D311D491F591F08955F9338DF7D
:100AB600703821F411200AF49FCFA4CF903809F49E
:100AC60095CF01240894970B1BF4D4F30020F3CFA1
:100AD600792F1F932F933F934F931124112722278A
:100AE60033274427552790E2AE17BF0786074107ED
:100AF60030F0AE1BBF0B860B410B089401C08894E7
:100B0600551F221F331F111CAA1FBB1F881F441FFE
:100B16009A9551F7F901612D4F913F912F911F91B0
:100B2600662332F0550FEE1FFF1F661F7A9543F2BC
:100B3600DBDE5F9108950024AF0DB01D0895F19599
:100B4600E195F0400895F09560957095E195FF4F19
:100B56006F4F7F4F08956F2F660F660B762F0895A0
:100B6600ED91FC9111970895ED93FD936D937C9310
:100B760008950590F491E02D08957A936A93FA9377
:100B8600EA9308955A934A933A932A931A930A93A7
:100B960008955D814C813B812A81198108810895E0
:00000001FF
