:0A0000000C944A000C9400000C94CC
:10000A0077000C9400000C9400000C9400000C94EF
:10001A0000000C9400000C9400000C947B000C94DB
:10002A0000000C9400000C9400000C9400000C9446
:10003A0000000C9400000C9400000C9400000C9436
:10004A0000000C9400000C9400001027E8036400E0
:10005A000A00010000100001100001000000000069
:10006A00000000000000253032643A253032643A3C
:10007A00253032643A253032640080C00A00040018
:10008A0066000200600184000000F894EE27ECBBD1
:10009A00F1E0FBBFEBBFE5BF8DE0A2E0BB27ED932C
:1000AA008A95E9F780E094E0A0E6ED930197E9F7F5
:1000BA00E6E8F0E085919591009761F0A591B591F8
:1000CA0005901590BF01F00105900D920197E1F797
:1000DA00FB01F0CFEFE5EDBFE4E0EEBFC0E6D1E013
:1000EA000C948E000E94960318D005C00E949603B5
:1000FA00E3E8E2BF28D0E991EFBFF991E991B9911C
:10010A00A9919991899179916991F9901990099098
:10011A0018956ED07894FFCFFFCFB49903C0E1E071
:10012A005E2E10C0B59903C0E1E0E51509F002C0E2
:10013A00552408C0CC24DD24AA24BB24882499246D
:10014A006624772408956197EAE0E41511F0439450
:10015A0005C04424E1E0E51509F421D0FE01FA9333
:10016A00EA93E0E7F0E0FA93EA93F3010E94A4032A
:10017A00F4010E94A403F5010E94A403F6010E945F
:10018A00A40380E10E94AA026496E0E0EA93A0E058
:10019A000E94FE02DE010E943D0361960895F60167
:1001AA0031966F01E3E6F0E0EC15FD0504F5CC2489
:1001BA00DD24F50131965F01EBE3F0E0EA15FB057A
:1001CA00B4F4AA24BB24F40131964F01EBE3F0E026
:1001DA00E815F90564F488249924F30131963F015E
:1001EA00E3E6F0E0E615F70514F4662477240895AB
:1001FA00E0E0EABBEBBBE7BBE8BBEFEFE4BBE0E068
:10020A00E5BBE0EFE1BBE0E0E2BBE3E0E3BFE3E84C
:10021A00E2BFE0E0ECBFEFBDEEBDEDBDECBDE7BD7A
:10022A00E6BDEBBDEABDE9BDE8BDE2BDE5BDE4BDA5
:10023A00E3BDE1E0E9BFEBB7E068EBBFE8E0E5BFAB
:10024A00E0E0E4BFE0E8EABFE0E0EAB9E0E8E8B904
:10025A00E0E0E0BFE6B9EDB9E6BFA0E10E944E03D7
:10026A000895BA93AA931A930A93AA81BB81129604
:10027A000E94FA03309759F1AA81BB8114960E9411
:10028A00FA038F01309761F00230E0E01E0798F020
:10029A00F80131978F01AA81BB811496ED93FC93E3
:1002AA00AA81BB811296ED91FD913196FE93EE9350
:1002BA003197AC81A083AA81BB810E94FA03FF23F4
:1002CA002AF0ED91FD913196FE93EE9306C0AA8134
:1002DA00BB81EFEFFFEFED93FC931981088125961F
:1002EA000895BA93AA9326970E94070410E0AC8552
:1002FA00BD85E0E0F0E0ED93FC93EA89FB89319655
:10030A00EA8BFB8B3197E4912E2FE03009F415C16B
:10031A00E12FE03039F4253211F411E002C00E94D5
:10032A00A9030AC1E130A9F4253219F40E94A903EC
:10033A0002C112E040E000E02D3211F401E0FCC0FD
:10034A002B3211F44BE2F8C0203211F440E2F4C02F
:10035A0002C0E23039F450E013E0203311F40068AF
:10036A00EBC003C0E33009F0E7C0203310F02A33B2
:10037A0008F007C0AAE05A9F502DE22FE0535E0F03
:10038A00DBC0E22FE33649F40E94B003E889F98919
:10039A00A481AA930E94B603CEC0E33741F40E9417
:1003AA00B0030E94BC030E947D031E2F0AC0E037DF
:1003BA0061F40E94B0030E94BC030E9489031E2FAD
:1003CA00086002600F7730E034C0E43611F0E93695
:1003DA0011F4046002C0E53731F4E4E5F0E0EE839D
:1003EA00FF8315E00CC0E83511F4086003C0E83754
:1003FA0009F0A1C0EEE5F0E0EE83FF8314E002FF0E
:10040A0014C00E94B0030E94C603AB85AA233AF423
:10041A00EA85FB850E94F103EA87FB874DE24030BB
:10042A0011F01F5F01C00B7F04C00E94B0030E943D
:10043A00C60300FD11C0151778F407FF08C002FFB4
:10044A0004C00B7F242F115001C020E301C020E219
:10045A000E94A9035150EFCF312F01FF17C030304E
:10046A00A1F003FF06C0EE81FF812591EE83FF8391
:10047A0005C0AE81BF812D91AE83BF830E94A903BF
:10048A00503009F051503150EACF4BC020E3EE8191
:10049A00FF810E94FE03E887F987EE81FF81329689
:1004AA00EE83FF83E885F985AA85BB85AE17BF076A
:1004BA0050F02F5FA885B985EA85FB85EA1BFB0BFF
:1004CA00EA87FB87EFCF2A3328F003FF02C0295FB0
:1004DA0001C0295D04FD1AC0213320F4A885B9851D
:1004EA00119709F409C0531710F000FF01C013C097
:1004FA0020E207FF0BC020E3006102FF07C00B7F69
:10050A004A930E94B603503009F051500E94A90341
:10051A00503009F051503150A885B985129708F02A
:10052A00B5CF00FF08C0503031F05150E0E2EA93F5
:10053A000E94B603F8CF10E0E0CEAC85BD850E94DC
:10054A00FA030E940E0464960895FF92F82E2697E5
:10055A000E9409040E94CE03309719F4EFEFFFEFCF
:10056A0023C0DE0116960E94ED038D010E94CE0380
:10057A00EE83FF83E0E0E887E987DE011A960E94AE
:10058A00ED030E94FA03FA93EA931A930A93E6E3B5
:10059A00F1E0FA93EA93DE011A96A3DE9F01AE8197
:1005AA00BF81E0E0EC93F9010E9410042A96FF90C3
:1005BA000895AA93E5B3EF70AE2FE881E07FEA2BA6
:1005CA00E5BB8DE08A95F1F7AA9A8DE08A95F1F755
:1005DA00AA988DE08A95F1F789C0AA93A881E9DFE4
:1005EA00E881E295E883A881E4DF85E88A95F1F756
:1005FA007DC0AA93E881F0E0E05AFE4FE081A9812C
:10060A00AE0FEBDFE981E0936401E881E0936501D5
:10061A0022960895A2E00E94D503ACE0DEDFA1E0B5
:10062A000E94D503E0E0E0936501E0936401089538
:10063A00AA93A881AA3031F0E0916601A0916401E1
:10064A00AE1760F0E0E0EA93A0916501AF5FA09376
:10065A006501CFDFA881AA3009F448C0E09164019E
:10066A00EF5FE0936401A89AA881B7DFA8983EC01B
:10067A00BA93AA931A93A981BA81ED91A983BA83ED
:10068A001E2FE03019F0A12FD3DFF5CF1881239662
:10069A000895AA93E4B3E06FE4BBA29AA09AA19A40
:1006AA00AA98A898A998E881E0936601E058E0938F
:1006BA006201E881E054E0936301A4E1B0E00E94A2
:1006CA00E3030E94DB030E94DB030E94DB03A0E238
:1006DA0070DF88EC90E00197F1F7A8E27EDFA4E0F2
:1006EA007CDFA5E87ADFA6E078DF94DF219608951B
:1006FA00BA93AA93A991B991EE27FF276D91662320
:10070A0011F03196FBCF0895BA93AA93AA27BB2773
:10071A00E991F9910590002011F01196FBCFFD01A6
:10072A0008950A921A92FA926A937A938A939A93FA
:10073A00AA93BA93EA93FA93EFB7EA9308950E94B9
:10074A00F5030E94020408952A93AD85BE85EF85BC
:10075A00F88909950895E889F9893497E88BF98B1E
:10076A000895AD85BE85EF85F88909950895A8890C
:10077A00B98914960E94FA03EE83FF83AE81BF8182
:10078A000895A889B98914960E94FA03EA87FB8713
:10079A000895DE011C960E94ED030E94FA03089553
:1007AA000E94F202A3E0B0E00C94E303A0E30E94EB
:1007BA00DE0288EC90E00197F1F70895109639F07F
:1007CA0080ED97E00197F1F7A8951197C9F7089579
:1007DA000024AF0DB01D0895F195E195F0400895FC
:1007EA006F2F660F660B762F0895ED91FC91119786
:1007FA0008950590F491E02D08957A936A93FA93F7
:10080A00EA9308955A934A933A932A931A930A9326
:10081A0008955D814C813B812A811981088108955F
:00000001FF
