:080000000C945E000C949100C9
:100008000C9495000C9400000C9400000C940000D3
:100018000C9400000C9400000C94AB000C94A50008
:100028000C9400000C9400000C9400000C94000048
:100038000C9400000C9400000C9400000C94000038
:100048000C9499000C9400000C9400001027E8030D
:1000580064000A0001000010000110000100000007
:100068000000000000000000E803FF0025303264B3
:100078003A253032643A253032643A253032640009
:1000880046554C4C00253464002534644D533000EB
:10009800253464555330000080C00A00040066000F
:1000A8000200600170000100620172000200660136
:1000B800A0000000F894EE27ECBBF1E0FBBFEBBF1B
:1000C800E5BF8DE0A2E0BB27ED938A95E9F780E0D4
:1000D80094E0A0E6ED930197E9F7E2EAF0E0859174
:1000E8009591009761F0A591B59105901590BF0184
:1000F800F00105900D920197E1F7FB01F0CFEFE5D4
:10010800EDBFE4E0EEBFC0E6D1E00C948B0073D104
:10011800E0E0E4BB7894FFCFFFCF0E949D04A7D016
:1001280034C00E949D043FD030C00E949D04E0E08E
:10013800EABBE9B3F0E0E0936201F093630127D1F1
:1001480024C00E949D04E3E8E2BF43D01EC00E9481
:100158009D041A930A930E94AB040E948505ADEB97
:10016800B7E386E895E30E94B305A0E0B0E080E03D
:1001780090E00E94B3050E944C058F010E941B0667
:10018800EDBDE02FECBD09911991E991EFBFF9910F
:10019800E991B991A9919991899179916991F99088
:1001A800199009901895B49903C0E1E05E2E10C02B
:1001B800B59903C0E1E0E51509F002C0552408C06F
:1001C800CC24DD24AA24BB248824992466247724FB
:1001D80008956197EAE0E41511F0439405C04424BA
:1001E800E1E0E51509F41AD00E94CB04E4E7F0E059
:1001F800FA93EA93F3010E94CF04F4010E94CF041A
:10020800F5010E94CF04F6010E94CF0480E10E940C
:10021800B1036496E0E0EA93A0E0E6C0F601319607
:100228006F01E3E6F0E0EC15FD0504F5CC24DD24D0
:10023800F50131965F01EBE3F0E0EA15FB05B4F454
:10024800AA24BB24F40131964F01EBE3F0E0E81552
:10025800F90564F488249924F30131963F01E3E613
:10026800F0E0E615F70514F46624772408956097FE
:10027800E7B3E777E7BBB79907C0A0916001B091F2
:1002880061010E94D2060CF006C0A0E6B1E0ED9133
:10029800FD91319710C0B39908C0A0916001B09149
:1002A8006101A83EE3E0BE070CF007C0A0E6B1E09C
:1002B800ED91FD913196FE93EE93E0916001F091FE
:1002C8006101309759F40E94CB04E8E8F0E0FA9312
:1002D800EA9380E00E94B103249610C00E94CB04E8
:1002E800EDE8F0E0FA93EA93E0916001F0916101A2
:1002F8000E94CF0484E00E94B1032896E0E0EA93CC
:10030800A1E00E940504DE010E944404609608955D
:100318000E94CD062497A889B9898A899B89EC8986
:10032800FD896E897F890E940A067F936F93FF93E8
:10033800EF93A885B9858A859B85EC81FD816E81BF
:100348007F810E940A06AF91BF918F919F910E9471
:1003580045067F936F93FF93EF93A889B9898A899C
:100368009B89EC85FD856E857F850E940A06AF9185
:10037800BF918F919F910E948706A885B9858A852C
:100388009B850E9405060E94C3066896089561979A
:100398000E94AB04E0936401F09365010E94D404C9
:1003A8000E948C06309759F40E94CB04E1E9F0E0F2
:1003B800FA93EA930E94D4040E945D060AC00E9440
:1003C800CB04E8E9F0E0FA93EA93E0916401F09154
:1003D80065010E9420060E94C80684E00E94B103BD
:1003E8002896E7E0EA93A1E00E940504DE010E9456
:1003F800440461960895E0E0EABBEBBBE7BBE8BBC9
:10040800EFEFE4BBE0E0E5BBE0EFE1BBE0E0E2BB3F
:10041800E3E0E3BFE3E8E2BFE0E0ECBFE0E5EFBD27
:10042800E1E0EEBDE3E6EDBDE0ECECBDE0E0E7BD0C
:10043800E6BDEBBDEABDE9BDE8BDE2BDE5BDE4BD95
:10044800E3BDE5E0E9BFEBB7E06EEBBFEAE0E5BF8F
:10045800E0E0E4BFE0EEEABFE0E0EAB9E0E8E8B9EE
:10046800E0E0E0BFE6B9EDB9E6BFA0E10E945504BF
:100478000895BA93AA931A930A93AA81BB811296F4
:100488000E94BB06309759F1AA81BB8114960E943D
:10049800BB068F01309761F00230E0E01E0798F04C
:1004A800F80131978F01AA81BB811496ED93FC93D3
:1004B800AA81BB811296ED91FD913196FE93EE9340
:1004C8003197AC81A083AA81BB810E94BB06FF2320
:1004D8002AF0ED91FD913196FE93EE9306C0AA8124
:1004E800BB81EFEFFFEFED93FC931981088125960F
:1004F8000895BA93AA9326970E94D60610E0AC8571
:10050800BD85E0E0F0E0ED93FC93EA89FB89319644
:10051800EA8BFB8B3197E4912E2FE03009F415C15B
:10052800E12FE03039F4253211F411E002C00E94C5
:10053800DB040AC1E130A9F4253219F40E94DB0476
:1005480002C112E040E000E02D3211F401E0FCC0ED
:100558002B3211F44BE2F8C0203211F440E2F4C01F
:1005680002C0E23039F450E013E0203311F400689F
:10057800EBC003C0E33009F0E7C0203310F02A33A2
:1005880008F007C0AAE05A9F502DE22FE0535E0FF3
:10059800DBC0E22FE33649F40E94E204E889F989D6
:1005A800A481AA930E94E804CEC0E33741F40E94D4
:1005B800E2040E94EE040E9484041E2F0AC0E03761
:1005C80061F40E94E2040E94EE040E9490041E2F2F
:1005D800086002600F7730E034C0E43611F0E93685
:1005E80011F4046002C0E53731F4E4E5F0E0EE838D
:1005F800FF8315E00CC0E83511F4086003C0E83744
:1006080009F0A1C0EEE5F0E0EE83FF8314E002FFFD
:1006180014C00E94E2040E94F804AB85AA233AF4AD
:10062800EA85FB850E940F06EA87FB874DE240308A
:1006380011F01F5F01C00B7F04C00E94E2040E94FA
:10064800F80400FD11C0151778F407FF08C002FF71
:1006580004C00B7F242F115001C020E301C020E209
:100668000E94DB045150EFCF312F01FF17C030300B
:10067800A1F003FF06C0EE81FF812591EE83FF8381
:1006880005C0AE81BF812D91AE83BF830E94DB047C
:10069800503009F051503150EACF4BC020E3EE8181
:1006A800FF810E94BF06E887F987EE81FF813296B5
:1006B800EE83FF83E885F985AA85BB85AE17BF075A
:1006C80050F02F5FA885B985EA85FB85EA1BFB0BEF
:1006D800EA87FB87EFCF2A3328F003FF02C0295FA0
:1006E80001C0295D04FD1AC0213320F4A885B9850D
:1006F800119709F409C0531710F000FF01C013C087
:1007080020E207FF0BC020E3006102FF07C00B7F58
:100718004A930E94E804503009F051500E94DB04CB
:10072800503009F051503150A885B985129708F01A
:10073800B5CF00FF08C0503031F05150E0E2EA93E5
:100748000E94E804F8CF10E0E0CEAC85BD850E9499
:10075800BB060E94DD0664960895FF92F82E269740
:100768000E94D8060E940005309719F4EFEFFFEFBA
:1007780023C0DE0116960E9401068D010E94000525
:10078800EE83FF83E0E0E887E987DE011A960E949E
:1007980001060E94BB06FA93EA931A930A93EDE3C3
:1007A800F2E0FA93EA93DE011A96A3DE9F01AE8186
:1007B800BF81E0E0EC93F9010E94DF062A96FF90E2
:1007C8000895AA93E5B3EF70AE2FE881E07FEA2B96
:1007D800E5BB8DE08A95F1F7AA9A8DE08A95F1F745
:1007E800AA988DE08A95F1F789C0AA93A881E9DFD4
:1007F800E881E295E883A881E4DF85E88A95F1F746
:100808007DC0AA93E881F0E0EA59FE4FE081A98112
:10081800AE0FEBDFE981E0936A01E881E0936B01B9
:1008280022960895A2E00E940705ACE0DEDFA1E071
:100838000E940705E0E0E0936B01E0936A010895E8
:10084800AA93A881AA3031F0E0916C01A0916A01C5
:10085800AE1760F0E0E0EA93A0916B01AF5FA09360
:100868006B01CFDFA881AA3009F448C0E0916A0182
:10087800EF5FE0936A01A89AA881B7DFA8983EC005
:10088800BA93AA931A93A981BA81ED91A983BA83DD
:100898001E2FE03019F0A12FD3DFF5CF1881239652
:1008A8000895AA93E4B3E06FE4BBA29AA09AA19A30
:1008B800AA98A898A998E881E0936C01E058E09379
:1008C8006801E881E054E0936901A4E1B0E00E9486
:1008D80015050E940D050E940D050E940D05A0E258
:1008E80070DF88EC90E00197F1F7A8E27EDFA4E0E2
:1008F8007CDFA5E87ADFA6E078DF94DF219608950B
:10090800BA93AA93A991B991EE27FF276D9166230F
:1009180011F03196FBCF0895BA93AA93AA27BB2763
:10092800E991F9910590002011F01196FBCFFD0196
:1009380008950A921A92FA926A937A938A939A93EA
:10094800AA93BA93EA93FA93EFB7EA930895E091DA
:100958006201F09163010E9420060E94C806E0E04F
:10096800F0E060E070E00E94C806EFEFF0E060E0C1
:1009780070E00E94C806E1E0F0E060E070E00E94EC
:10098800C806A0E1B7E280E090E00C948C01FE017B
:10099800FA93EA9308950E9420060E94C8060895D3
:1009A800A0916401B0916501E8EEF3E008952A93FF
:1009B800AD85BE85EF85F88909950895E889F98997
:1009C8003497E88BF98B0895AD85BE85EF85F88956
:1009D80009950895A889B98914960E94BB06EE83E3
:1009E800FF83AE81BF810895A889B98914960E94B2
:1009F800BB06EA87FB870895DE011C960E94010664
:100A08000E94BB0608950E94F903A3E0B0E00C948D
:100A18001505A0E30E94E50388EC90E00197F1F743
:100A28000895109639F080ED97E00197F1F7A895B1
:100A38001197C9F70895552342F4503811F4E0FF8F
:100A480004C03196691F791F6BF050E8572711F4DD
:100A58005F9373C05F3F31F0660F000C5795679541
:100A6800752F08955F9300200AF073C06CC050E89A
:100A7800192E1522880F991F9527550F879550E82D
:100A8800072E0522660F771F7527550F679508955E
:100A9800689401C0E8945F93F2DF703818F07F3FE4
:100AA80008F44BC056E1571BAAF4519558300EF480
:100AB800593030F0EFEFFFEF6FEF7FE777F91AC0AB
:100AC80077275523B9F0EE0FFF1F661F771F5A953A
:100AD800D1F710C07727583028F0EF2FF62F672F5F
:100AE8005850F9CF552331F076956795F795E795E6
:100AF8005A95D1F700200AF492D05F91089568942E
:100B080001C0E894309760407040B1F0002426F0AE
:100B1800772312F4009483D0172E7EE1112032F04F
:100B28007A95EE0FFF1F661F111CF9CFEF2FF62FD6
:100B3800612D5F938ADF5F910895EE27FF2766276F
:100B480077275F910895EFEFFFEF6FE77FEF5F91F2
:100B58000895EFEFFFEF6FE77FE75F9108955F93E9
:100B680086DF703851F3903841F301240894791FD7
:100B780023F41CF300203AF3ECCF0F921F932F932A
:100B88003F934F93112722279927689FA0018F9F92
:100B9800302D410D591F6B9F300D411D591F8E9FE0
:100BA80027D0BF9F25D06A9F23D0BE9F1DD0AF9F5F
:100BB8001BD0AE9F110D291F391F491F591FE32F45
:100BC800F42F652F522F4F913F912F911F910F9026
:100BD80066232AF0550FEE1FFF1F661F02C073958C
:100BE8004BF229DF5F910895100D211D391F02C0B6
:100BF800200D311D491F591F08950024AF0DB01D48
:100C08000895EA0FFB1F681F791F0895EA1BFB0B65
:100C1800680B790B0895F195E195F0400895F095EA
:100C280060957095E195FF4F6F4F7F4F0895EF2FB7
:100C3800FF27E7FDFFEF08956F2F660F660B762FEE
:100C480008957A9F702D6B9F700DF89F700DE99F26
:100C5800700D6A9F602D710DFB9F600D711DE89FDF
:100C6800600D711D8827FA9FF02D610D781FEB9F8D
:100C7800F00D611D781FEA9FE02DF10D681F781FA8
:100C8800089562D0DEDF0EF4CADF0895002411242F
:100C980090E1AA0FBB1F001C111C0E1A1F0A18F4A2
:100CA8000E0E1F1E01C0A1609A9599F7FD01D00193
:100CB80008953CD0EBDF0EF4AEDF08953F934F93D9
:100CC8005F93002411244427552730E2AA0FBB1F45
:100CD800881F991F001C111C441F551F0E1A1F0A3C
:100CE800460B570B28F40E0E1F1E461F571F01C038
:100CF800A1603A9559F7FD01BC01D001CA015F9185
:100D08004F913F91089520D0D9DF0EF488DF0895E0
:100D1800E894B7FF04C0A095B09511966894F7FDC4
:100D28007ADFB4DFFD010EF476DF0895E894F7FF6B
:100D380002C071DF6894B7FF06C0A095B095119600
:100D480000F8039400FA0895E89477FF02C067DF7B
:100D5800689497FF0BC00024A095B0958095909556
:100D68001196801D901D00F8039400FA0895ED91E6
:100D7800FC91119708950590F491E02D0895E8836A
:100D8800F9836A837B8308957A936A93FA93EA9343
:100D980008959A938A93BA93AA93089500240A16F9
:100DA8000B0608955A934A933A932A931A930A93EF
:100DB80008955D814C813B812A81198108810895BC
:00000001FF
