S01700004763634170706C69636174696F6E312E737265635B
S11300000C942A000C9468000C9477000C9434002F
S11300100C9434000C9434000C9434000C9434008C
S11300200C9434000C9434000C9434000C944E0062
S11300300C9434000C9434000C9434000C9434006C
S11300400C9434000C9434000C9434000C9434005C
S11300500C94340011241FBECFE5D8E0DEBFCDBF21
S11300600E9436000C9489000C94000015BA8FEF9E
S113007084BB81B38C6181BB88EF82BF81E083BF85
S113008089B7816089BF85B78A6085BF8BB7806C6B
S11300908BBF8AB7806C8ABF7894FFCF1F920F9270
S11300A00FB60F9211248F939F9385B3853648F032
S11300B085B3883C30F488EF82BF92B380E189270E
S11300C082BB9F918F910F900FBE0F901F90189538
S11300D01F920F920FB60F9211248F9385B38F5FE7
S11300E085BB8F910F900FBE0F901F9018951F9294
S11300F00F920FB60F9211248F9385B3882319F0B2
S113010085B3815085BB8F910F900FBE0F901F90C8
S10901101895F894FFCFDE
S9030000FC
